:100000000C942A000C9447000C9447000C94470071
:100010000C9447000C9447000C9447000C94E51690
:100020000C9447000C9447000C9447000C94470034
:100030000C9447000C9447000C9447000C94470024
:100040000C9455060C9447000C9447000C94470000
:100050000C94470011241FBECFE5D8E0DEBFCDBF12
:1000600010E0A0E6B0E0E8E3F6E402C005900D92EF
:10007000AC37B107D9F715E0ACE7B0E001C01D928D
:10008000AE30B107E1F70E942E130C941A230C94A2
:100090000000EF92FF920F931F937B018C0120E0F1
:1000A00030E040E05FE40E94490388238CF0C801FF
:1000B000B70120E030E040E05FE40E94C1010E940F
:1000C000A9039B01AC01205030404040504806C07D
:1000D000C801B7010E94A9039B01AC01B901CA0183
:1000E0001F910F91FF90EF900895A0E0B0E0EBE733
:1000F000F0E00C94C422DC012B01FA019C919230B7
:1001000008F439C1EB018881823008F433C194309E
:1001100069F4843009F02FC111969C91119789815F
:10012000981709F428C1AFE6B0E025C1843009F47E
:1001300021C18230A9F4923009F01DC19A01AD01AC
:1001400088E0EA010990AE01E90109929E0181501F
:10015000C1F7E201898111969C918923818308C1AD
:10016000923009F407C112962D903C901397EB0141
:100170008A819B811496AD90BD90CD90DC901797AD
:10018000EC80FD800E811F819101281B390BB90184
:1001900037FF04C066277727621B730B6032710537
:1001A0000CF061C0121613066CF537014801062EDB
:1001B00004C096948794779467940A94D2F721E0C8
:1001C00030E040E050E004C0220F331F441F551FB1
:1001D0006A95D2F721503040404050402E213F21B7
:1001E00040235123211531054105510521F021E01E
:1001F00030E040E050E079018A01E628F72808293C
:1002000019293CC0232BD1F1260E371E350146019A
:10021000062E04C096948794779467940A94D2F734
:1002200021E030E040E050E004C0220F331F441FC3
:10023000551F6A95D2F721503040404050402A2146
:100240003B214C215D21211531054105510521F04E
:1002500021E030E040E050E059016A01A628B728CB
:10026000C828D9280BC0821593052CF01C01AA249C
:10027000BB24650103C0EE24FF24870111969C91E5
:10028000D20111968C91981709F445C0992339F041
:10029000A80197012A193B094C095D0906C0A6016E
:1002A00095012E193F09400B510B57FD08C01182D3
:1002B0003382228224833583468357831DC081E0A5
:1002C00081833382228288279927DC01821B930B4A
:1002D000A40BB50B84839583A683B7830DC0220F2F
:1002E000331F441F551F24833583468357838281E0
:1002F000938101979383828324813581468157813D
:10030000DA01C9010197A109B1098F5F9F4FAF4F72
:10031000BF4328F30BC0918333822282EA0CFB1C7B
:100320000C1D1D1DE482F5820683178383E0808304
:10033000248135814681578157FF1AC0C901AA27F8
:1003400097FDA095BA2F81709070A070B0705695EF
:10035000479537952795822B932BA42BB52B848318
:100360009583A683B7838281938101969383828349
:10037000DF0101C0D201CD01CDB7DEB7E2E10C94BF
:10038000E022A0E2B0E0E7ECF1E00C94D022698337
:100390007A838B839C832D833E834F835887E9E048
:1003A000EE2EF12CEC0EFD1ECE010196B7010E943F
:1003B000D2048E010F5E1F4FCE010596B8010E9438
:1003C000D2048A8991E089278A8BC701B801AE01DE
:1003D000475E5F4F0E9475000E94FD03A096E6E015
:1003E0000C94EC22A0E2B0E0E8EFF1E00C94D02213
:1003F00069837A838B839C832D833E834F835887C5
:10040000F9E0EF2EF12CEC0EFD1ECE010196B701A6
:100410000E94D2048E010F5E1F4FCE010596B801D7
:100420000E94D204C701B801AE01475E5F4F0E942F
:1004300075000E94FD03A096E6E00C94EC22A0E279
:10044000B0E0E5E2F2E00C94C42269837A838B8306
:100450009C832D833E834F835887CE010196BE0136
:10046000675F7F4F0E94D204CE010596BE016F5E8A
:100470007F4F0E94D2049985923088F0898982301A
:10048000C8F0943019F4823051F404C0843029F457
:10049000923081F48FE690E0C6C0923049F420E0BB
:1004A0009A858A89981321E02A87CE010996BBC0D4
:1004B000823049F420E09A858A89981321E02A8BBA
:1004C000CE014196B0C02D843E844F8458886D88FB
:1004D0007E888F88988CEE24FF248701AA24BB2471
:1004E000650140E050E060E070E0E0E0F0E0C10174
:1004F00081709070892BE9F0E60CF71C081D191D1E
:100500009A01AB012A0D3B1D4C1D5D1D80E090E062
:10051000A0E0B0E0E614F7040805190520F481E036
:1005200090E0A0E0B0E0BA01A901480F591F6A1F8E
:100530007B1FAA0CBB1CCC1CDD1C97FE08C081E0F5
:1005400090E0A0E0B0E0A82AB92ACA2ADB2A3196B6
:10055000E032F10549F0660C771C881C991C569412
:10056000479437942794C3CFFA85EA892B893C892D
:100570008B859C85280F391F2E5F3F4F17C0CA01FE
:1005800081709070892B61F016950795F794E79428
:1005900080E090E0A0E0B0E8E82AF92A0A2B1B2BC3
:1005A00076956795579547952F5F3F4F77FDE7CF36
:1005B0000CC0440F551F661F771F17FD4160EE0CDE
:1005C000FF1C001F111F21503040403090E05907A0
:1005D00090E0690790E4790760F32B8F3C8FDB0193
:1005E000CA018F779070A070B07080349105A1051A
:1005F000B10561F447FD0AC0E114F10401051105DC
:1006000029F0405C5F4F6F4F7F4F40781A8EFE1786
:1006100011F081E08A8F4D8F5E8F6F8F78A383E01A
:10062000898FCE0149960E94FD03A096E2E10C94C9
:10063000E022A8E1B0E0EFE1F3E00C94D02269837E
:100640007A838B839C832D833E834F83588789E0F5
:10065000E82EF12CEC0EFD1ECE010196B7010E9492
:10066000D2048E010F5E1F4FCE010596B8010E9485
:10067000D2048985823040F08989823028F0C70110
:10068000B8010E944A0501C08FEF6896E6E00C941D
:10069000EC22A8E1B0E0EFE4F3E00C94D02269830F
:1006A0007A838B839C832D833E834F83588789E095
:1006B000E82EF12CEC0EFD1ECE010196B7010E9432
:1006C000D2048E010F5E1F4FCE010596B8010E9425
:1006D000D2048985823040F08989823028F0C701B0
:1006E000B8010E944A0501C08FEF6896E6E00C94BD
:1006F000EC22A8E1B0E0EFE7F3E00C94D0226983AC
:100700007A838B839C832D833E834F83588789E034
:10071000E82EF12CEC0EFD1ECE010196B7010E94D1
:10072000D2048E010F5E1F4FCE010596B8010E94C4
:10073000D2048985823040F08989823028F0C7014F
:10074000B8010E944A0501C081E06896E6E00C9479
:10075000EC22ACE0B0E0EFEAF3E00C94D422698341
:100760007A838B839C83CE010196BE016B5F7F4FA2
:100770000E94D2048D81823061F1823050F1843048
:1007800021F48E81882351F12EC02F81388537FDC9
:1007900020C06E812F3131051CF06623F9F023C093
:1007A0008EE190E0821B930B29853A854B855C8511
:1007B00004C056954795379527958A95D2F76623B5
:1007C000B1F050954095309521953F4F4F4F5F4F79
:1007D0000EC020E030E040E050E009C02FEF3FEFD6
:1007E0004FEF5FE704C020E030E040E050E8B9019F
:1007F000CA012C96E2E00C94F022DF92EF92FF9275
:100800000F931F93FC01E480F58006811781D1804E
:100810008081823048F480E090E0A0E1B0E0E82AF6
:10082000F92A0A2B1B2BA5C0843009F49FC0823003
:1008300021F4EE24FF24870105C0E114F104010531
:10084000110519F4E0E0F0E096C0628173819FEF3A
:10085000623879070CF05BC022E83FEF261B370BAC
:100860002A3131052CF020E030E040E050E02AC091
:10087000B801A701022E04C0769567955795479554
:100880000A94D2F781E090E0A0E0B0E004C0880FC5
:10089000991FAA1FBB1F2A95D2F70197A109B10979
:1008A0008E219F21A023B1230097A105B10521F03E
:1008B00081E090E0A0E0B0E09A01AB01282B392B59
:1008C0004A2B5B2BDA01C9018F779070A070B07052
:1008D00080349105A105B10539F427FF09C0205CDA
:1008E0003F4F4F4F5F4F04C0215C3F4F4F4F5F4F13
:1008F000E0E0F0E02030A0E03A07A0E04A07A0E402
:100900005A0710F0E1E0F0E079018A0127C0603871
:10091000710564F5FB01E158FF4FD801C7018F77DE
:100920009070A070B07080349105A105B10539F4C4
:10093000E7FE0DC080E490E0A0E0B0E004C08FE3EB
:1009400090E0A0E0B0E0E80EF91E0A1F1B1F17FFA1
:1009500005C016950795F794E794319687E01695AC
:100960000795F794E7948A95D1F705C0EE24FF2404
:100970008701EFEFF0E06E2F679566276795902F60
:100980009F77D794DD24D7948E2F8695492F462BB9
:10099000582F5D29B701CA011F910F91FF90EF9069
:1009A000DF900895FC01DB01408151812281622F9B
:1009B0006F7770E0221F2227221F9381892F880FD3
:1009C000822B282F30E0991F9927991F11969C930D
:1009D000119721153105A9F54115510561057105DD
:1009E00011F482E037C082E89FEF13969C938E93B8
:1009F00012979A01AB0167E0220F331F441F551F66
:100A00006A95D1F783E08C930DC0220F331F441FEA
:100A1000551F12968D919C911397019713969C9355
:100A20008E931297203080E0380780E0480780E4FA
:100A3000580758F314962D933D934D935C93179755
:100A400008952F3F310579F4411551056105710570
:100A500019F484E08C93089564FF03C081E08C93C3
:100A600012C01C9210C02F57304013963C932E9307
:100A7000129783E08C9387E0440F551F661F771F02
:100A80008A95D1F7706414964D935D936D937C9322
:100A9000179708951F93DC01FB019C91923008F495
:100AA00047C08081823008F443C0943051F41196DD
:100AB0001C91843099F58181682F70E0611B710968
:100AC0003FC0843021F0923031F48230B9F181811D
:100AD000882389F12DC011961C9111978230F1F075
:100AE00081811817D9F412962D913C911397828128
:100AF00093818217930794F028173907BCF0149656
:100B00008D919D910D90BC91A02D248135814681C0
:100B10005781281739074A075B0718F4112341F05A
:100B20000AC082179307A407B50740F4112319F0F0
:100B300061E070E005C06FEF7FEF02C060E070E041
:100B4000CB011F910895DF93CF9300D0CDB7DEB7CF
:100B50009A83898389819A81009731F089819A816A
:100B600090937D0080937C000F900F90CF91DF9148
:100B70000895DF93CF93CDB7DEB7A7E2B0E0E7E209
:100B8000F0E0808180648C93A7E2B0E0E7E2F0E0DF
:100B900080818F778C93A7E2B0E0E7E2F0E080817C
:100BA0008F7D8C93A6E2B0E0E6E2F0E080818F7D5D
:100BB0008C93A6E2B0E0E6E2F0E080818E7F8C9339
:100BC000A6E2B0E0E6E2F0E0808182608C93A6E2EB
:100BD000B0E0E6E2F0E0808184608C93A6E2B0E0D1
:100BE000E6E2F0E0808180688C93CF91DF910895F8
:100BF000DF93CF930F92CDB7DEB78983A7E2B0E042
:100C0000E7E2F0E08081807E8C93A7E2B0E0E7E24B
:100C1000F0E090818981892B8C93A6E2B0E0E6E236
:100C2000F0E0808180648C93E6E2F0E08081829540
:100C30008F70882F90E0817090700097A9F3A6E2E2
:100C4000B0E0E6E2F0E0808180618C93E4E2F0E0E5
:100C5000808191810F90CF91DF910895DF93CF93A1
:100C60000F92CDB7DEB78983A7E2B0E0E7E2F0E00C
:100C70008081807E8C93A7E2B0E0E7E2F0E0908193
:100C80008981892B8C93A6E2B0E0E6E2F0E08081D6
:100C9000877F8C93A6E2B0E0E6E2F0E0808180649A
:100CA0008C930F90CF91DF9108951F920F920FB602
:100CB0000F9211242F933F934F935F936F937F93E2
:100CC0008F939F93AF93BF93EF93FF93DF93CF9354
:100CD000CDB7DEB780917C0090917D00009749F000
:100CE000E0917C00F0917D00A4E2B0E08D919C91B8
:100CF0000995CF91DF91FF91EF91BF91AF919F91B6
:100D00008F917F916F915F914F913F912F910F90B4
:100D10000FBE0F901F901895DF93CF93CDB7DEB71E
:100D200027970FB6F894DEBF0FBECDBF89836A83C5
:100D30004B838B81813009F06FC08981282F30E08F
:100D40003F832E838E819F818130910549F12E81D1
:100D50003F81223031052CF48E819F81009761F014
:100D6000D2C02E813F812230310571F18E819F8169
:100D700083309105E9F1C7C0AAE3B0E0EAE3F0E00F
:100D80008081482F8A81282F30E081E090E0022E78
:100D900002C0880F991F0A94E2F7842B8C93B3C08A
:100DA000A7E3B0E0E7E3F0E08081482F8A81282FB5
:100DB00030E081E090E0022E02C0880F991F0A9473
:100DC000E2F7842B8C939FC0A4E3B0E0E4E3F0E06F
:100DD0008081482F8A81282F30E081E090E0022E28
:100DE00002C0880F991F0A94E2F7842B8C938BC062
:100DF000A1E3B0E0E1E3F0E08081482F8A81282F71
:100E000030E081E090E0022E02C0880F991F0A9422
:100E1000E2F7842B8C9377C08B81882309F073C011
:100E20008981282F30E03D832C838C819D81813006
:100E3000910559F12C813D81223031052CF48C81B2
:100E40009D81009769F05FC02C813D812230310582
:100E500089F18C819D818330910509F440C053C094
:100E6000AAE3B0E0EAE3F0E08081482F8A81282FEE
:100E700030E081E090E0022E02C0880F991F0A94B2
:100E8000E2F7809584238C933EC0A7E3B0E0E7E3CC
:100E9000F0E08081482F8A81282F30E081E090E0C7
:100EA000022E02C0880F991F0A94E2F780958423CE
:100EB0008C9329C0A4E3B0E0E4E3F0E08081482F04
:100EC0008A81282F30E081E090E0022E02C0880F56
:100ED000991F0A94E2F7809584238C9314C0A1E3B0
:100EE000B0E0E1E3F0E08081482F8A81282F30E0F4
:100EF00081E090E0022E02C0880F991F0A94E2F769
:100F0000809584238C9327960FB6F894DEBF0FBE8E
:100F1000CDBFCF91DF910895DF93CF93CDB7DEB7EB
:100F200027970FB6F894DEBF0FBECDBF89836A83C3
:100F30004B838B81813009F06FC08981282F30E08D
:100F40003F832E838E819F818130910549F12E81CF
:100F50003F81223031052CF48E819F81009761F012
:100F6000D2C02E813F812230310571F18E819F8167
:100F700083309105E9F1C7C0ABE3B0E0EBE3F0E00B
:100F80008081482F8A81282F30E081E090E0022E76
:100F900002C0880F991F0A94E2F7842B8C93B3C088
:100FA000A8E3B0E0E8E3F0E08081482F8A81282FB1
:100FB00030E081E090E0022E02C0880F991F0A9471
:100FC000E2F7842B8C939FC0A5E3B0E0E5E3F0E06B
:100FD0008081482F8A81282F30E081E090E0022E26
:100FE00002C0880F991F0A94E2F7842B8C938BC060
:100FF000A2E3B0E0E2E3F0E08081482F8A81282F6D
:1010000030E081E090E0022E02C0880F991F0A9420
:10101000E2F7842B8C9377C08B81882309F073C00F
:101020008981282F30E03D832C838C819D81813004
:10103000910559F12C813D81223031052CF48C81B0
:101040009D81009769F05FC02C813D812230310580
:1010500089F18C819D818330910509F440C053C092
:10106000ABE3B0E0EBE3F0E08081482F8A81282FEA
:1010700030E081E090E0022E02C0880F991F0A94B0
:10108000E2F7809584238C933EC0A8E3B0E0E8E3C8
:10109000F0E08081482F8A81282F30E081E090E0C5
:1010A000022E02C0880F991F0A94E2F780958423CC
:1010B0008C9329C0A5E3B0E0E5E3F0E08081482F00
:1010C0008A81282F30E081E090E0022E02C0880F54
:1010D000991F0A94E2F7809584238C9314C0A2E3AD
:1010E000B0E0E2E3F0E08081482F8A81282F30E0F1
:1010F00081E090E0022E02C0880F991F0A94E2F767
:10110000809584238C9327960FB6F894DEBF0FBE8C
:10111000CDBFCF91DF910895DF93CF9300D000D062
:10112000CDB7DEB789836A838981282F30E03C837D
:101130002B838B819C8181309105D1F02B813C8167
:10114000223031052CF48B819C81009761F01EC008
:101150002B813C812230310581F08B819C81833051
:10116000910581F013C0EAE3F0E08A8180830EC02C
:10117000E7E3F0E08A81808309C0E4E3F0E08A815C
:10118000808304C0E1E3F0E08A8180830F900F90B8
:101190000F900F90CF91DF910895DF93CF9300D000
:1011A00000D0CDB7DEB789836A838981282F30E0EC
:1011B0003C832B838B819C8181309105D1F02B81E5
:1011C0003C81223031052CF48B819C81009761F0A9
:1011D0001EC02B813C812230310581F08B819C81A6
:1011E0008330910581F013C0EBE3F0E08A818083C6
:1011F0000EC0E8E3F0E08A81808309C0E5E3F0E017
:101200008A81808304C0E2E3F0E08A8180830F90CA
:101210000F900F900F90CF91DF910895DF93CF93B0
:1012200000D000D00F92CDB7DEB78A836B838A815E
:10123000282F30E03D832C834C815D814130510566
:1012400041F18C819D818230910534F42C813D8166
:101250002115310561F052C04C815D81423051054C
:1012600051F18C819D8183309105B9F147C0E9E34B
:10127000F0E08081282F30E08B81882F90E0A90159
:1012800002C0559547958A95E2F7CA018170898316
:1012900035C0E6E3F0E08081282F30E08B81882F95
:1012A00090E0A90102C0559547958A95E2F7CA01D9
:1012B0008170898323C0E3E3F0E08081282F30E050
:1012C0008B81882F90E0A90102C0559547958A959A
:1012D000E2F7CA018170898311C0E0E3F0E0808108
:1012E000282F30E08B81882F90E0A90102C055950E
:1012F00047958A95E2F7CA018170898389810F90A9
:101300000F900F900F900F90CF91DF910895DF9382
:10131000CF9300D000D0CDB7DEB789836A838981AF
:10132000282F30E03C832B838B819C818130910579
:1013300049F12B813C81223031052CF48B819C8139
:10134000009761F05AC02B813C812230310571F148
:101350008B819C8183309105E9F14FC0ABE3B0E014
:10136000EBE3F0E08081482F8A81282F30E081E094
:1013700090E0022E02C0880F991F0A94E2F784279A
:101380008C933BC0A8E3B0E0E8E3F0E08081482F15
:101390008A81282F30E081E090E0022E02C0880F81
:1013A000991F0A94E2F784278C9327C0A5E3B0E045
:1013B000E5E3F0E08081482F8A81282F30E081E04A
:1013C00090E0022E02C0880F991F0A94E2F784274A
:1013D0008C9313C0A2E3B0E0E2E3F0E08081482FF9
:1013E0008A81282F30E081E090E0022E02C0880F31
:1013F000991F0A94E2F784278C930F900F900F9017
:101400000F90CF91DF910895DF93CF93CDB7DEB7E3
:101410006C970FB6F894DEBF0FBECDBF83E062E0DD
:1014200041E00E948C0780E090E0A0E8BFE3898F54
:101430009A8FAB8FBC8F698D7A8D8B8D9C8D20E0C0
:1014400030E04AEF54E40E941F02DC01CB018D8B97
:101450009E8BAF8BB88F6D897E898F89988D20E0A8
:1014600030E040E85FE30E94790388232CF481E0B8
:1014700090E09C8B8B8B3FC06D897E898F89988D86
:1014800020E03FEF4FE757E40E94190318164CF590
:10149000698D7A8D8B8D9C8D20E030E040E251E4A7
:1014A0000E941F02DC01CB01BC01CD010E9449005A
:1014B000DC01CB019C8B8B8B0FC088EC90E09A8B6E
:1014C000898B89899A890197F1F79A8B898B8B8906
:1014D0009C8901979C8B8B8B8B899C89009769F7E2
:1014E00014C06D897E898F89988D0E944900DC0126
:1014F000CB019C8B8B8B8B899C89988B8F878F855D
:1015000098890197F1F7988B8F8783E062E040E03C
:101510000E948C0780E090E0A0E8BFE38B879C8767
:10152000AD87BE876B857C858D859E8520E030E00C
:101530004AEF54E40E941F02DC01CB018F8398879D
:10154000A987BA876F81788589859A8520E030E000
:1015500040E85FE30E94790388232CF481E090E067
:101560009E838D833FC06F81788589859A8520E031
:101570003FEF4FE757E40E94190318164CF56B85AF
:101580007C858D859E8520E030E040E251E40E941C
:101590001F02DC01CB01BC01CD010E944900DC012E
:1015A000CB019E838D830FC088EC90E09C838B835E
:1015B0008B819C810197F1F79C838B838D819E8128
:1015C00001979E838D838D819E81009769F714C05A
:1015D0006F81788589859A850E944900DC01CB015D
:1015E0009E838D838D819E819A83898389819A814F
:1015F0000197F1F79A8389836C960FB6F894DEBF52
:101600000FBECDBFCF91DF910895DF93CF93CDB7BC
:10161000DEB7C154D0400FB6F894DEBF0FBECDBFC9
:1016200080E090E0A8E4B2E48DAB9EABAFABB8AF86
:101630006DA97EA98FA998AD20E030E04AEF54E46F
:101640000E941F02DC01CB0189AB9AABABABBCABF8
:1016500069A97AA98BA99CA920E030E040E85FE362
:101660000E94790388232CF481E090E098AB8FA747
:101670003FC069A97AA98BA99CA920E03FEF4FE759
:1016800057E40E94190318164CF56DA97EA98FA97D
:1016900098AD20E030E040E251E40E941F02DC01FE
:1016A000CB01BC01CD010E944900DC01CB0198AB0C
:1016B0008FA70FC088EC90E09EA78DA78DA59EA553
:1016C0000197F1F79EA78DA78FA598A9019798ABD1
:1016D0008FA78FA598A9009769F714C069A97AA95F
:1016E0008BA99CA90E944900DC01CB0198AB8FA774
:1016F0008FA598A99CA78BA78BA59CA50197F1F70F
:101700009CA78BA719AECE01CA969EAF8DAFE9E715
:10171000F0E02196FFAFEEAF2197F3E02296FFAF06
:1017200022972196EEADFFAD2197008021968EADD8
:101730009FAD2197019621969FAF8EAF2197EDAD7A
:10174000FEAD00828DAD9EAD01969EAF8DAF22960F
:101750009FAD2297915022969FAF22972296EFAD90
:101760002297EE23F1F611C089AD282F30E0CE018B
:10177000CA96FC01E20FF31F908183E0692F41E0DC
:101780000E948C0689AD8F5F89AF89AD833060F38D
:1017900082E06FEF0E948C0888E30E94350D80E0A4
:1017A00090E0A0E8BFE38FA398A7A9A7BAA76FA16D
:1017B00078A589A59AA520E030E04AEF54E40E947C
:1017C0001F02DC01CB018BA39CA3ADA3BEA36BA125
:1017D0007CA18DA19EA120E030E040E85FE30E9463
:1017E000790388232CF481E090E09AA389A33FC079
:1017F0006BA17CA18DA19EA120E03FEF4FE757E4B4
:101800000E94190318164CF56FA178A589A59AA511
:1018100020E030E040E251E40E941F02DC01CB01F5
:10182000BC01CD010E944900DC01CB019AA389A330
:101830000FC088EC90E098A38F8F8F8D98A10197AF
:10184000F1F798A38F8F89A19AA101979AA389A3F1
:1018500089A19AA1009769F714C06BA17CA18DA101
:101860009EA10E944900DC01CB019AA389A389A112
:101870009AA19E8F8D8F8D8D9E8D0197F1F79E8FF2
:101880008D8F8CE00E94350D80E090E0A0E8BFE3F2
:10189000898F9A8FAB8FBC8F698D7A8D8B8D9C8D44
:1018A00020E030E04AEF54E40E941F02DC01CB014B
:1018B0008D8B9E8BAF8BB88F6D897E898F89988D2C
:1018C00020E030E040E85FE30E94790388232CF4B5
:1018D00081E090E09C8B8B8B3FC06D897E898F89E6
:1018E000988D20E03FEF4FE757E40E941903181648
:1018F0004CF5698D7A8D8B8D9C8D20E030E040E237
:1019000051E40E941F02DC01CB01BC01CD010E9409
:101910004900DC01CB019C8B8B8B0FC088EC90E0E5
:101920009A8B898B89899A890197F1F79A8B898B90
:101930008B899C8901979C8B8B8B8B899C890097C9
:1019400069F714C06D897E898F89988D0E9449003E
:10195000DC01CB019C8B8B8B8B899C89988B8F872F
:101960008F8598890197F1F7988B8F8781E00E9486
:10197000350D80E090E0A0E0B0E48B879C87AD87D8
:10198000BE876B857C858D859E8520E030E04AEFA3
:1019900054E40E941F02DC01CB018F839887A98742
:1019A000BA876F81788589859A8520E030E040E8A4
:1019B0005FE30E94790388232CF481E090E09E830A
:1019C0008D833FC06F81788589859A8520E03FEFC0
:1019D0004FE757E40E94190318164CF56B857C8578
:1019E0008D859E8520E030E040E251E40E941F0298
:1019F000DC01CB01BC01CD010E944900DC01CB011F
:101A00009E838D830FC088EC90E09C838B838B81B9
:101A10009C810197F1F79C838B838D819E81019737
:101A20009E838D838D819E81009769F714C06F819D
:101A3000788589859A850E944900DC01CB019E83C7
:101A40008D838D819E819A83898389819A81019773
:101A5000F1F79A838983CF5BDF4F0FB6F894DEBF2F
:101A60000FBECDBFCF91DF910895DF93CF930F923B
:101A7000CDB7DEB7898383E060E040E00E948C0749
:101A800083E061E040E00E948C0782E069810E946F
:101A9000CD080E94040A0F90CF91DF910895DF9343
:101AA000CF930F92CDB7DEB7898383E060E041E04A
:101AB0000E948C0783E061E040E00E948C0782E096
:101AC00069810E94CD080E94040A0F90CF91DF9196
:101AD0000895DF93CF9300D00F92CDB7DEB79B83ED
:101AE0008A83198219820EC08981282F30E08A8169
:101AF0009B81FC01E20FF31F80810E944F0D8981C1
:101B00008F5F89838981282F30E08A819B81FC0146
:101B1000E20FF31F8081882339F70F900F900F9009
:101B2000CF91DF910895EF92FF920F931F93DF9370
:101B3000CF93CDB7DEB761970FB6F894DEBF0FBE77
:101B4000CDBF6E877F87888B998B8E859F85A8896F
:101B5000B9898A879B87AC87BD871E821F821886BA
:101B6000198681E090E0A0E0B0E08A839B83AC839B
:101B7000BD8319828E859F85A889B989BB2394F47A
:101B80008E859F85A889B989B095A09590958195F6
:101B90009F4FAF4FBF4F8A879B87AC87BD8781E040
:101BA000898342C08A859B85AC85BD850097A10548
:101BB000B105D1F580E30E944F0D36C08A819B812B
:101BC000AC81BD812AE030E040E050E0BC01CD01B5
:101BD0000E9454227B018C018A859B85AC85BD8542
:101BE0002AE030E040E050E0BC01CD010E94A92293
:101BF000DC01CB018E0D9F1DA01FB11F8A839B832B
:101C0000AC83BD838A859B85AC85BD852AE030E0A9
:101C100040E050E0BC01CD010E94A922DA01C901D7
:101C20008A879B87AC87BD878A859B85AC85BD8568
:101C3000181619061A061B060CF28E859F85A889B0
:101C4000B989BB2384F48E859F85A889B989B0950D
:101C5000A095909581959F4FAF4FBF4F8A879B87E7
:101C6000AC87BD874AC08E859F85A889B9898A8738
:101C70009B87AC87BD8741C08A819B81AC81BD8138
:101C80002AE030E040E050E0BC01CD010E94A922F2
:101C9000DC01CB018E839F83A887B987898181303E
:101CA00021F48DE20E944F0D19828E81805D0E9489
:101CB0004F0D8A819B81AC81BD812AE030E040E0FC
:101CC00050E0BC01CD010E94A922DA01C9018A833A
:101CD0009B83AC83BD838A859B85AC85BD852AE0CB
:101CE00030E040E050E0BC01CD010E94A922DA01C1
:101CF000C9018A879B87AC87BD878A859B85AC8510
:101D0000BD85181619061A061B060CF4B5CF619688
:101D10000FB6F894DEBF0FBECDBFCF91DF911F91FC
:101D20000F91FF90EF900895DF93CF9300D0CDB740
:101D3000DEB789836A838981813029F48A81815859
:101D40000E94350D07C08981823021F48A81815437
:101D50000E94350D0F900F90CF91DF910895DF9382
:101D6000CF93CDB7DEB727970FB6F894DEBF0FBE7F
:101D7000CDBF9D838C836E834F838AE190E00E9468
:101D800087119A83898389819A81009709F46FC0AA
:101D900080917E0090917F00009741F489819A8123
:101DA00090937F0080937E000E9416118E81823076
:101DB00010F081E08E83E981FA81118E108EE98125
:101DC000FA818E81868BE981FA818F81878BE98107
:101DD000FA818C819D819183808389819A81029689
:101DE0000E941D1289819A810C960E941D12E98120
:101DF000FA8189819A8191878087E981FA81898135
:101E00009A81938B828B8E81282F30E086E090E040
:101E1000821B930BE981FA8195878487E981FA8196
:101E2000968980918000891728F4E981FA81868952
:101E300080938000E981FA818689282F30E0C901EA
:101E4000880F991F880F991F880F991F820F931F62
:101E5000AC0149575F4F89819A819C012E5F3F4FAA
:101E6000CA01B9010E942D1281E08B8302C08FEF5D
:101E70008B838B8127960FB6F894DEBF0FBECDBF44
:101E8000CF91DF910895DF93CF9300D000D000D0A1
:101E9000CDB7DEB79C838B837E836D8320918100D9
:101EA000309182008B819C81820F931F9A8389835A
:101EB00080917E0090917F0002960E94E512E09151
:101EC0007E00F0917F0089819A81938382832091A3
:101ED00081003091820089819A818217930770F482
:101EE0008091AD009091AE0020917E0030917F00F6
:101EF0002E5F3F4FB9010E9479120DC08091AB0057
:101F00009091AC0020917E0030917F002E5F3F4F7A
:101F1000B9010E9479128D819E81009761F08091B4
:101F20007E0090917F009C01245F3F4F8D819E81B8
:101F3000B9010E94791226960FB6F894DEBF0FBE43
:101F4000CDBFCF91DF910895DF93CF9300D0CDB770
:101F5000DEB73AC0F894E091B400F091B500868104
:101F600097819A83898389819A810C960E94E512D0
:101F7000789489819A8102960E94E512E981FA811A
:101F8000968980918000891728F4E981FA818689F1
:101F900080938000E981FA818689282F30E0C90189
:101FA000880F991F880F991F880F991F820F931F01
:101FB000AC0149575F4F89819A819C012E5F3F4F49
:101FC000CA01B9010E942D128091AF00882309F047
:101FD000C1CF0F900F90CF91DF910895DF93CF93F2
:101FE00000D000D0CDB7DEB70E943B1E2091830009
:101FF00030918400821B930B909386008093850020
:1020000085C080918100909182000196909382001A
:102010008093810080918500909186000197909334
:1020200086008093850080918100909182000097C6
:1020300009F064C08091AB009091AC009A838983D1
:102040008091AD009091AE009093AC008093AB0076
:1020500089819A819093AE008093AD004FC0E0914A
:10206000AB00F091AC000580F681E02D8681978170
:102070009C838B83EB81FC81228133818091810061
:10208000909182008217930708F440C0F8948B81E6
:102090009C8102960E94E512EB81FC8184899589DE
:1020A000009729F08B819C810C960E94E512789410
:1020B000EB81FC81968980918000891728F4EB815F
:1020C000FC81868980938000EB81FC818689282FA2
:1020D00030E0C901880F991F880F991F880F991F39
:1020E000820F931FAC0149575F4F8B819C819C01EC
:1020F0002E5F3F4FCA01B9010E942D12E091AB0043
:10210000F091AC008081882309F0A9CF80918500EF
:1021100090918600009709F074CF80918100909192
:10212000820090938400809383000F900F900F9013
:102130000F90CF91DF910895DF93CF9300D0CDB76B
:10214000DEB70E94A40F0E94EE0F0AC080918000AB
:10215000882309F466C080918000815080938000BC
:1021600080918000282F30E0C901880F991F880FC7
:10217000991F880F991F820F931FFC01E957FF4F8A
:102180008081882319F380918000282F30E0C901D5
:10219000880F991F880F991F880F991F820F931F0F
:1021A00089579F4F9A838983E981FA810180F2815F
:1021B000E02D82819381E981FA8192838183E98193
:1021C000FA812181328189819A8103962817390702
:1021D00059F4E981FA810180F281E02D82819381B5
:1021E000E981FA8192838183E981FA810180F28118
:1021F000E02D8681978190937F0080937E00E0910F
:102200007E00F0917F004081518180917E0090910D
:102210007F00E0917E00F0917F002789622FFA0114
:1022200009950F900F90CF91DF910895DF93CF9391
:102230000F92CDB7DEB7198213C08981282F30E005
:10224000C901880F991F880F991F880F991F820F46
:10225000931F89579F4F0E94F31189818F5F898354
:102260008981823050F389E990E00E94F31182EA7B
:1022700090E00E94F3118FEA90E00E94F31189E947
:1022800090E09093AC008093AB0082EA90E0909352
:10229000AE008093AD000F90CF91DF910895DF9352
:1022A000CF9300D000D00F92CDB7DEB79D838C8343
:1022B000EC81FD810580F681E02D868197819B83ED
:1022C0008A838A819B810C960E94E5128A819B8178
:1022D0009C01245F3F4F8FEA90E0B9010E942D12CC
:1022E000EA81FB819689E0917E00F0917F008689EA
:1022F000981718F081E0898301C0198289810F90B5
:102300000F900F900F900F90CF91DF910895DF9372
:10231000CF9300D000D0CDB7DEB79C838B831A82D9
:1023200019820E94A51D8091B8009091B9002B815F
:102330003C81820F931F23E0883E920718F520917D
:10234000B8003091B9008B819C81280F391F809192
:10235000B8009091B90082179307A0F48091B8005B
:102360009091B90086549F4F9A8389832091B80039
:102370003091B9008B819C81820F931F9093B9009B
:102380008093B8000E94B11D89819A810F900F90AF
:102390000F900F90CF91DF910895DF93CF9300D0EE
:1023A000CDB7DEB79A8389830F900F90CF91DF91DD
:1023B0000895DF93CF93CDB7DEB71092B900109296
:1023C000B800CF91DF910895DF93CF93CDB7DEB7FB
:1023D0002091B8003091B90088EE93E0821B930BF6
:1023E000CF91DF910895DF93CF9300D0CDB7DEB7C3
:1023F0009A83898389819A810396E981FA819283FC
:102400008183E981FA818FEF9FEF948383838981B0
:102410009A810396E981FA819683858389819A81DD
:102420000396E981FA8190878783E981FA81108296
:102430000F900F90CF91DF910895DF93CF9300D04D
:10244000CDB7DEB79A838983E981FA811186108638
:102450000F900F90CF91DF910895DF93CF9300D02D
:1024600000D000D0CDB7DEB79C838B837E836D8395
:10247000EB81FC81818192819A838983E981FA8150
:1024800082819381ED81FE8193838283EB81FC8144
:1024900081819281ED81FE8195838483E981FA8136
:1024A0000280F381E02D8D819E81958384838D81CF
:1024B0009E81E981FA81938382838D819E81EB8164
:1024C000FC8192838183ED81FE818B819C81918748
:1024D0008087EB81FC8180818F5FEB81FC81808331
:1024E00026960FB6F894DEBF0FBECDBFCF91DF9119
:1024F0000895DF93CF93CDB7DEB728970FB6F89442
:10250000DEBF0FBECDBF9E838D8378876F83EF8143
:10251000F885808191819A83898389819A812FEFBF
:102520008F3F920739F4ED81FE81878190859C83EE
:102530008B8318C08D819E8103969C838B8306C0FC
:10254000EB81FC81828193819C838B83EB81FC8175
:102550000280F381E02D2081318189819A81821767
:10256000930770F7EB81FC8182819381EF81F8857D
:1025700093838283EF81F8850280F381E02D8F8140
:10258000988595838483EF81F8858B819C819583E1
:1025900084838F819885EB81FC8193838283EF8193
:1025A000F8858D819E8191878087ED81FE81808174
:1025B0008F5FED81FE81808328960FB6F894DEBF91
:1025C0000FBECDBFCF91DF910895DF93CF9300D0A1
:1025D00000D0CDB7DEB79C838B83EB81FC81A281D9
:1025E000B381EB81FC818481958115969C938E93B8
:1025F0001497EB81FC81A481B581EB81FC81828100
:10260000938113969C938E931297EB81FC81808526
:1026100091859A838983E981FA81218132818B8135
:102620009C812817390741F4EB81FC8184819581D5
:10263000E981FA8192838183EB81FC811186108686
:10264000E981FA8180818150E981FA8180830F904C
:102650000F900F900F90CF91DF910895AF92BF929E
:10266000CF92DF92EF92FF920F93DF93CF93CDB78C
:10267000DEB70E946B138AE893E160E070E04CE201
:1026800051E020E030E002E0EE24FF24CC24DD2401
:10269000AA24BB240E94691B8FEC93E160E070E0E8
:1026A0004CE251E020E030E001E0EE24FF24CC24B5
:1026B000DD24AA24BB240E94691B0E94621D80E0C5
:1026C00090E0CF91DF910F91FF90EF90DF90CF904E
:1026D000BF90AF900895DF93CF93CDB7DEB70E9440
:1026E000B9050E94050B81E00E94350D80E690E05F
:1026F0000E94690D81E06BE00E94940E88E690E0F4
:102700000E94690D80E063E041E00E948C06CF9159
:10271000DF910895DF93CF9300D000D0CDB7DEB71F
:102720009C838B831A82198280E00E94F8059A8329
:10273000898389819A81CC01A0E0B0E028E833E167
:1027400040E050E0BC01CD010E945422DC01CB01ED
:10275000072E7AE0B695A795979587957A95D1F744
:10276000702D9A83898389819A812AE030E0B901AA
:102770000E947322CB019A83898381E067E00E94E3
:10278000940E89819A81CC01A0E0B0E0BC01CD011A
:102790000E94930D88EC90E00E942D1DC5CFEF9212
:1027A000FF920F931F93DF93CF9300D000D0CDB74C
:1027B000DEB79C838B831A82198281E00E94F80520
:1027C0009A83898389819A81CC01A0E0B0E028E8CE
:1027D00033E140E050E0BC01CD010E9454227B0176
:1027E0008C0189819A8188519C4F9C0140E050E086
:1027F000C801B7010E948722DA01C9019A8389833F
:1028000089819A8127E0803D920730F080E063E083
:1028100040E00E948C0705C080E063E041E00E9438
:102820008C078CE291E00E942D1DC7CFDF93CF93E0
:10283000CDB7DEB728970FB6F894DEBF0FBECDBF79
:102840009C838B837E836D8358874F83EB81FC81D0
:1028500081E180838B819C8101979C838B83EB81B9
:10286000FC8182E280838B819C8101979C838B8396
:10287000EB81FC8183E380838B819C8101979C8326
:102880008B838D819E819A8389838981EB81FC81F1
:1028900080838B819C8101979C838B8389819A8122
:1028A000892F99279A8389838981EB81FC81808391
:1028B0008B819C8101979C838B83EB81FC811082AF
:1028C0008B819C8101979C838B83EB81FC8180E8C9
:1028D00080838B819C8101979C838B83EB81FC811E
:1028E00010828B819C8101979C838B83EB81FC817F
:1028F00082E080838B819C8101979C838B83EB8119
:10290000FC8183E080838B819C8101979C838B83F6
:10291000EB81FC8184E080838B819C8101979C8387
:102920008B83EB81FC8185E080838B819C81019787
:102930009C838B83EB81FC8186E080838B819C81EF
:1029400001979C838B83EB81FC8187E080838B8163
:102950009C8101979C838B83EB81FC8188E0808341
:102960008B819C8101979C838B83EB81FC8189E027
:1029700080838B819C8101979C838B83EB81FC817D
:1029800080E180838B819C8101979C838B83EB8189
:10299000FC8181E180838B819C8101979C838B8367
:1029A000EB81FC8182E180838B819C8101979C83F8
:1029B0008B83EB81FC8183E180838B819C810197F8
:1029C0009C838B83EB81FC8184E180838B819C8160
:1029D00001979C838B83EB81FC8185E180838B81D4
:1029E0009C8101979C838B83EB81FC8186E18083B2
:1029F0008B819C8101979C838B83EB81FC8187E198
:102A000080838B819C8101979C838B83EB81FC81EC
:102A100088E180838B819C8101979C838B83EB81F0
:102A2000FC8189E180838B819C8101979C838B83CE
:102A3000EB81FC8180E280838B819C8101979C8368
:102A40008B83EB81FC8181E280838B819C81019768
:102A50009C838B83EB81FC8182E280838B819C81D0
:102A600001979C838B83EB81FC8183E280838B8144
:102A70009C8101979C838B838F8198859A8389831E
:102A80008981EB81FC8180838B819C8101979C8370
:102A90008B8389819A81892F99279A838983898158
:102AA000EB81FC8180838B819C8101979C838B834C
:102AB000EB81FC8186E280838B819C8101979C83E2
:102AC0008B83EB81FC8187E280838B819C810197E2
:102AD0009C838B83EB81FC8188E280838B819C814A
:102AE00001979C838B83EB81FC8189E280838B81BE
:102AF0009C8101979C838B83EB81FC8180E38083A5
:102B00008B819C8101979C838B83EB81FC8181E38A
:102B100080838B819C8101979C838B838B819C819B
:102B200028960FB6F894DEBF0FBECDBFCF91DF91D0
:102B30000895DF93CF93CDB7DEB70E948916A09199
:102B4000A204B091A304CD91CDBFDD91DEBFFF9172
:102B5000EF91DF91CF91BF91AF919F918F917F9135
:102B60006F915F914F913F912F911F910F91FF9026
:102B7000EF90DF90CF90BF90AF909F908F907F901D
:102B80006F905F904F903F902F901F900F900FBECF
:102B90000F90089581E0CF91DF910895DF93CF9357
:102BA000CDB7DEB7CF91DF9108950F920FB6F894AD
:102BB0000F921F9211242F923F924F925F926F9229
:102BC0007F928F929F92AF92BF92CF92DF92EF92BD
:102BD000FF920F931F932F933F934F935F936F93A6
:102BE0007F938F939F93AF93BF93CF93DF93EF9395
:102BF000FF93A091A204B091A3040DB60D920EB65E
:102C00000D920E94451FA091A204B091A304CD9102
:102C1000CDBFDD91DEBFFF91EF91DF91CF91BF91ED
:102C2000AF919F918F917F916F915F914F913F9164
:102C30002F911F910F91FF90EF90DF90CF90BF9059
:102C4000AF909F908F907F906F905F904F903F904C
:102C50002F901F900F900FBE0F9008950F920FB6F8
:102C6000F8940F921F9211242F923F924F925F92ED
:102C70006F927F928F929F92AF92BF92CF92DF928C
:102C8000EF92FF920F931F932F933F934F935F9376
:102C90006F937F938F939F93AF93BF93CF93DF9364
:102CA000EF93FF93A091A204B091A3040DB60D92EF
:102CB0000EB60D920E94701E0E94451FA091A204A4
:102CC000B091A304CD91CDBFDD91DEBFFF91EF9117
:102CD000DF91CF91BF91AF919F918F917F916F9134
:102CE0005F914F913F912F911F910F91FF90EF9026
:102CF000DF90CF90BF90AF909F908F907F906F901C
:102D00005F904F903F902F901F900F900FBE0F90AD
:102D10000895DF93CF9300D000D000D0CDB7DEB7B9
:102D200080E49FE1A0E0B0E08B839C83AD83BE8311
:102D30008B819C81AD81BE81689415F8B695A7956D
:102D4000979587951694D1F78B839C83AD83BE832B
:102D50008B819C81AD81BE810197A109B1098B83D3
:102D60009C83AD83BE838B8189838B819C81AD8164
:102D7000BE81892F9A2FAB2FBB278B839C83AD837A
:102D8000BE838B818A83EBE4F0E08A818083EAE46E
:102D9000F0E0898180838BE08983EEE4F0E0898133
:102DA0008083E9E5F0E0808189838981806189837E
:102DB000E9E5F0E08981808326960FB6F894DEBFBE
:102DC0000FBECDBFCF91DF9108950E942E161895AA
:102DD000DF93CF93CDB7DEB728970FB6F894DEBF59
:102DE0000FBECDBF8F8368871A8219828F81882397
:102DF00009F48CC08FE190E00E9487119E838D833F
:102E00008D819E81009709F481C08F81282F30E049
:102E10008885882F90E0AC01249FC001259F900DEC
:102E2000349F900D112401969C838B838B819C8110
:102E30000E948711ED81FE8191838083ED81FE8167
:102E400080819181009709F45DC0ED81FE81408110
:102E500051818F81282F30E08885882F90E0BC0138
:102E6000269FC001279F900D369F900D1124840F3F
:102E7000951FED81FE8193838283ED81FE81128E09
:102E8000ED81FE8180819181ED81FE819583848336
:102E9000ED81FE81408151818F81882F90E09C01DE
:102EA000215030408885882F90E0BC01269FC001CA
:102EB000279F900D369F900D1124840F951FED8153
:102EC000FE8197838683ED81FE818F81838FED81E3
:102ED000FE818885848FED81FE818FEF858FED8166
:102EE000FE818FEF868F8D819E8108960E94F3115F
:102EF0008D819E8141960E94F3118D819E819A83DE
:102F0000898304C08D819E810E94CD1189819A811F
:102F100028960FB6F894DEBF0FBECDBFCF91DF91DC
:102F20000895DF93CF93CDB7DEB72C970FB6F89403
:102F3000DEBF0FBECDBF9E838D8378876F835A8798
:102F400049872B8719820FB6F8940F92ED81FE8185
:102F5000928DED81FE81838D9817D8F48D819E81AD
:102F60002F813885B9014B850E94CC19ED81FE81F6
:102F70008189882349F08D819E8141960E94E11FBD
:102F8000813011F40E94D5150F900FBE81E08C871F
:102F90005CC089859A85009721F40F900FBE1C862E
:102FA00054C08981882331F4CE0102960E944920C1
:102FB00081E089830F900FBE0E94A51D0FB6F89483
:102FC0000F92ED81FE81858D8F3F19F4ED81FE8199
:102FD000158EED81FE81868D8F3F19F4ED81FE8186
:102FE000168E0F900FBECE0102969E01275F3F4FB7
:102FF000B9010E946220882309F58D819E810E947B
:10300000301B8823A1F08D819E81089629853A8501
:10301000B9010E94AB1F8D819E810E94A91A0E9456
:10302000B11D882309F08FCF0E94D5158CCF8D81DB
:103030009E810E94A91A0E94B11D85CF8D819E811B
:103040000E94A91A0E94B11D1C868C852C960FB671
:10305000F894DEBF0FBECDBFCF91DF910895DF930F
:10306000CF93CDB7DEB729970FB6F894DEBF0FBE6A
:10307000CDBF9C838B837E836D8358874F83298745
:103080001982EB81FC81928DEB81FC81838D9817F5
:1030900040F58B819C812D813E81B90149850E943B
:1030A000CC19EB81FC81868D8F3F89F4EB81FC810B
:1030B0008189882399F08B819C8141960E94E11F30
:1030C000882361F0EF81F88581E0808307C0EB8180
:1030D000FC81868D8F5FEB81FC81868F81E08A8306
:1030E00001C01A828A8129960FB6F894DEBF0FBEFE
:1030F000CDBFCF91DF910895DF93CF93CDB7DEB7EA
:103100002E970FB6F894DEBF0FBECDBF98878F8382
:103110007A8769875C874B872D871B820FB6F89467
:103120000F92EF81F885828D882309F43FC0EF81EB
:10313000F885868197819A8389838F8198852985EF
:103140003A85B9010E94611A8D858823B1F4EF8117
:10315000F885828D8150EF81F885828FEF81F88527
:1031600080858823F1F08F81988508960E94E11F61
:103170008130B9F40E94D51514C0EF81F88589819A
:103180009A8197838683EF81F8858189882349F026
:103190008F81988541960E94E11F882311F00E943B
:1031A000D5150F900FBE81E08E875CC08B859C8506
:1031B000009721F40F900FBE1E8654C08B81882388
:1031C00031F4CE0104960E94492081E08B830F9058
:1031D0000FBE0E94A51D0FB6F8940F92EF81F885DF
:1031E000858D8F3F19F4EF81F885158EEF81F88575
:1031F000868D8F3F19F4EF81F885168E0F900FBEE4
:10320000CE0104969E01255F3F4FB9010E946220C6
:10321000882309F58F8198850E94FD1A8823A1F0E3
:103220008F81988541962B853C85B9010E94AB1F03
:103230008F8198850E94A91A0E94B11D882309F0E8
:103240006DCF0E94D5156ACF8F8198850E94A91AEB
:103250000E94B11D63CF8F8198850E94A91A0E9498
:10326000B11D1E868E852E960FB6F894DEBF0FBE5A
:10327000CDBFCF91DF910895DF93CF93CDB7DEB768
:1032800028970FB6F894DEBF0FBECDBF9C838B830B
:103290007E836D8358874F831982EB81FC81828DF9
:1032A000882371F18B819C812D813E81B9010E941F
:1032B000611AEB81FC81828D8150EB81FC81828FD0
:1032C000EB81FC81858D8F3F89F4EB81FC818085CA
:1032D000882399F08B819C8108960E94E11F8823A6
:1032E00061F0EF81F88581E0808307C0EB81FC818C
:1032F000858D8F5FEB81FC81858F81E08A8301C0A2
:103300001A828A8128960FB6F894DEBF0FBECDBF11
:10331000CF91DF910895DF93CF9300D00F92CDB777
:10332000DEB79B838A830FB6F8940F92EA81FB8104
:10333000828D89830F900FBE89810F900F900F901F
:10334000CF91DF910895DF93CF9300D00F92CDB747
:10335000DEB79B838A83EA81FB81828D89838981A1
:103360000F900F900F90CF91DF910895DF93CF933F
:1033700000D0CDB7DEB79A838983E981FA81808155
:1033800091810E94CD1189819A810E94CD110F9067
:103390000F90CF91DF910895DF93CF9300D000D0AD
:1033A0000F92CDB7DEB79A8389837C836B834D837D
:1033B000E981FA81848D882309F474C08D81882382
:1033C00099F5E981FA8164817581E981FA81848DB9
:1033D000482F50E02B813C81CB01B9010E94FB2298
:1033E000E981FA8124813581E981FA81848D882FF0
:1033F00090E0820F931FE981FA8195838483E981AC
:10340000FA8124813581E981FA81828193812817AB
:10341000390708F447C0E981FA8180819181E98107
:10342000FA81958384833EC0E981FA816681778140
:10343000E981FA81848D482F50E02B813C81CB01BA
:10344000B9010E94FB22E981FA8126813781E98155
:10345000FA81848D882F90E0909581959F4F820FFF
:10346000931FE981FA8197838683E981FA81268116
:103470003781E981FA81808191812817390790F499
:10348000E981FA8122813381E981FA81848D882F53
:1034900090E0909581959F4F820F931FE981FA816B
:1034A00097838683E981FA81828D8F5FE981FA8132
:1034B000828F0F900F900F900F900F90CF91DF9110
:1034C0000895DF93CF9300D000D0CDB7DEB79A83B5
:1034D00089837C836B83E981FA8180819181009764
:1034E00089F1E981FA8126813781E981FA81848D28
:1034F000882F90E0820F931FE981FA81978386835A
:10350000E981FA8126813781E981FA81828193817B
:103510002817390740F0E981FA8180819181E9819A
:10352000FA8197838683E981FA8146815781E9810F
:10353000FA81848D282F30E08B819C81BA01A9010A
:103540000E94FB220F900F900F900F90CF91DF9170
:103550000895DF93CF9300D0CDB7DEB79A838983E8
:103560000FB6F8940F9215C0E981FA8181898823FA
:10357000A9F089819A8141960E94E11F882311F068
:103580000E94BF20E981FA81868D8150E981FA810C
:10359000868FE981FA81868D181634F3E981FA81E4
:1035A0008FEF868F0F900FBE0FB6F8940F9215C055
:1035B000E981FA8180858823A9F089819A8108961A
:1035C0000E94E11F882311F00E94BF20E981FA8147
:1035D000858D8150E981FA81858FE981FA81858D18
:1035E000181634F3E981FA818FEF858F0F900FBEA3
:1035F0000F900F90CF91DF910895DF93CF9300D07C
:103600000F92CDB7DEB79B838A830FB6F8940F92E3
:10361000EA81FB81828D1982882311F481E08983FC
:103620000F900FBE89810F900F900F90CF91DF9177
:103630000895DF93CF9300D00F92CDB7DEB79B8371
:103640008A83EA81FB81828D1982882311F481E0CB
:10365000898389810F900F900F90CF91DF9108950A
:10366000DF93CF9300D00F92CDB7DEB79B838A83D1
:103670000FB6F8940F92EA81FB81928DEA81FB816B
:10368000838D1982981711F481E089830F900FBE02
:1036900089810F900F900F90CF91DF910895DF9364
:1036A000CF9300D00F92CDB7DEB79B838A83EA8198
:1036B000FB81928DEA81FB81838D1982981711F429
:1036C00081E0898389810F900F900F90CF91DF91D6
:1036D0000895AF92BF92CF92DF92EF92FF920F9335
:1036E0001F93DF93CF93CDB7DEB764970FB6F894EF
:1036F000DEBF0FBECDBF9F838E83798768875B87D0
:103700004A873D872C870E87F88AEF86DA8AC98A2E
:10371000BC8AAB8A8A859B8529893A89B9010E942E
:10372000EE219C838B838B819C81009709F499C047
:10373000EB81FC812789308D8A859B850197820FDB
:10374000931F9A8389838B819C8128853985EB8996
:10375000FC89AA85BB85B9014E859F018D010E9418
:10376000D32089819A812E813F814C855D85B90165
:103770000E941614EB81FC81918380838F85988948
:10378000009731F0EF85F8898B819C81918380834C
:103790000FB6F8940F928091A5048F5F8093A504D3
:1037A0008091A2049091A304009769F48B819C817D
:1037B0009093A3048093A2048091A5048130A9F47E
:1037C0000E942A2112C08091AA04882371F4E091FA
:1037D000A204F091A30496898E85891730F08B811D
:1037E0009C819093A3048093A204EB81FC81968931
:1037F0008091A804891728F4EB81FC818689809345
:10380000A8048091AF048F5F8093AF04EB81FC81AB
:1038100096898091A904891728F4EB81FC81868917
:103820008093A904EB81FC818689282F30E0C901AF
:10383000880F991F880F991F880F991F820F931F58
:10384000AC0140555B4F8B819C819C012E5F3F4FAB
:10385000CA01B9010E942D1281E08D830F900FBE25
:1038600002C08FEF8D838D81813071F48091AA0425
:10387000882351F0E091A204F091A30496898E85EB
:10388000981710F40E94D5158D8164960FB6F894A0
:10389000DEBF0FBECDBFCF91DF911F910F91FF9083
:1038A000EF90DF90CF90BF90AF900895DF93CF93CC
:1038B00000D000D000D0CDB7DEB79C838B830FB68D
:1038C000F8940F922091A2043091A3048B819C81E3
:1038D0008217930711F41C821B828B819C810097B5
:1038E00039F48091A2049091A3049E838D8304C037
:1038F0008B819C819E838D838D819E819A83898318
:1039000089819A8102960E94E512E981FA8184896F
:103910009589009729F089819A810C960E94E51279
:1039200089819A819C012E5F3F4F85E095E0B90126
:103930000E942D128091A4048F5F8093A404809133
:10394000AF048F5F8093AF040F900FBE8091AA04E5
:10395000882331F08B819C81009711F40E94D5154A
:1039600026960FB6F894DEBF0FBECDBFCF91DF9184
:103970000895DF93CF93CDB7DEB728970FB6F894AD
:10398000DEBF0FBECDBF9E838D8378876F83198284
:103990000E94A51DED81FE81208131818F81988556
:1039A000820F931F9C838B83ED81FE812081318167
:1039B0008091A6049091A70482179307A8F4ED8143
:1039C000FE81208131818B819C818217930700F5D4
:1039D0002091A6043091A7048B819C812817390778
:1039E000B8F481E0898314C0ED81FE8120813181AA
:1039F0008B819C818217930748F02091A604309117
:103A0000A7048B819C812817390710F481E08983F2
:103A1000ED81FE818B819C819183808389818823C4
:103A200059F08091A2049091A30402960E94E5129D
:103A30008B819C810E94A5210E94B11D8A838A816D
:103A4000882311F40E94D51528960FB6F894DEBF8E
:103A50000FBECDBFCF91DF910895DF93CF9300D0FC
:103A600000D00F92CDB7DEB79D838C8319828C81F5
:103A70009D810097D1F00E94A51D2091A604309150
:103A8000A7048C819D81820F931F9B838A838091E1
:103A9000A2049091A30402960E94E5128A819B8160
:103AA0000E94A5210E94B11D89838981882311F478
:103AB0000E94D5150F900F900F900F900F90CF91FF
:103AC000DF910895AF92BF92CF92DF92EF92FF9273
:103AD0000F93DF93CF930F92CDB7DEB72AE630E096
:103AE00089EC90E2B9014AEF50E020E030E000E0DC
:103AF000EE24FF24CC24DD24AA24BB240E94691BCD
:103B000089838981813051F4F89481E08093AA04FB
:103B10001092A7041092A6040E9499150F90CF91BD
:103B2000DF910F91FF90EF90DF90CF90BF90AF901B
:103B30000895DF93CF93CDB7DEB7F8941092AA041F
:103B40000E94CE15CF91DF910895DF93CF93CDB72B
:103B5000DEB78091AB048F5F8093AB04CF91DF9190
:103B60000895DF93CF9300D000D0CDB7DEB71A828F
:103B70000FB6F8940F928091AB0481508093AB0400
:103B80008091AB04882309F06CC08091A504882340
:103B900009F467C0198241C0E0910105F091020566
:103BA000868197819C838B838B819C810C960E945C
:103BB000E5128B819C8102960E94E512EB81FC81CB
:103BC00096898091A904891728F4EB81FC81868964
:103BD0008093A904EB81FC818689282F30E0C901FC
:103BE000880F991F880F991F880F991F820F931FA5
:103BF00080559B4F2B813C812E5F3F4FB9010E9426
:103C00002D12EB81FC819689E091A204F091A3042E
:103C10008689981710F081E089838091FC048823BD
:103C200009F0BACF8091AC04882371F007C00E94DC
:103C3000701E8091AC0481508093AC048091AC04E0
:103C40008823A9F781E089838981813021F08091DF
:103C5000AD04813031F481E08A831092AD040E947A
:103C6000D5150F900FBE8A810F900F900F900F9077
:103C7000CF91DF910895DF93CF9300D0CDB7DEB71A
:103C80000FB6F8940F928091A6049091A7049A839E
:103C900089830F900FBE89819A810F900F90CF91E9
:103CA000DF910895DF93CF9300D00F92CDB7DEB7A9
:103CB00019828091A6049091A7049B838A838A81AC
:103CC0009B810F900F900F90CF91DF910895DF931C
:103CD000CF93CDB7DEB78091A504CF91DF91089542
:103CE000DF93CF9300D000D000D0CDB7DEB7809166
:103CF000AB04882309F0BBC08091A6049091A7046F
:103D000001969093A7048093A6048091A6049091B5
:103D1000A7040097D1F58091F8049091F9049C8351
:103D20008B838091FA049091FB049093F904809323
:103D3000F8048B819C819093FB048093FA0480911A
:103D4000AE048F5F8093AE04E091F804F091F90423
:103D50008081882339F48FEF9FEF909378008093D0
:103D6000770013C0E091F804F091F9040580F68122
:103D7000E02D868197819E838D83ED81FE818281F6
:103D8000938190937800809377002091A6043091DE
:103D9000A70480917700909178002817390708F4DC
:103DA0006BC0E091F804F091F9048081882339F424
:103DB0008FEF9FEF90937800809377005DC0E09144
:103DC000F804F091F9040580F681E02D8681978151
:103DD0009E838D83ED81FE81828193819A83898385
:103DE0002091A6043091A70489819A812817390768
:103DF00038F489819A8190937800809377003CC051
:103E00008D819E8102960E94E512ED81FE8184895A
:103E10009589009729F08D819E810C960E94E5126C
:103E2000ED81FE8196898091A904891728F4ED819E
:103E3000FE8186898093A904ED81FE818689282FE1
:103E400030E0C901880F991F880F991F880F991FAB
:103E5000820F931FAC0140555B4F8D819E819C0169
:103E60002E5F3F4FCA01B9010E942D129ACF809157
:103E7000AC048F5F8093AC0426960FB6F894DEBF37
:103E80000FBECDBFCF91DF910895DF93CF9300D0C8
:103E9000CDB7DEB78091AB04882349F081E08093F1
:103EA000AD0454C08091A90481508093A9048091ED
:103EB000A904282F30E0C901880F991F880F991F86
:103EC000880F991F820F931FFC01E055FB4F8081E3
:103ED000882341F38091A904282F30E0C901880F7D
:103EE000991F880F991F880F991F820F931F805564
:103EF0009B4F9A838983E981FA810180F281E02DC9
:103F000082819381E981FA8192838183E981FA81B7
:103F10002181328189819A8103962817390759F4C2
:103F2000E981FA810180F281E02D82819381E9812A
:103F3000FA8192838183E981FA810180F281E02D07
:103F4000868197819093A3048093A2040F900F9091
:103F5000CF91DF910895DF93CF9300D000D000D0B0
:103F6000CDB7DEB79C838B837E836D834B815C8171
:103F70008091A2049091A3049C01245F3F4FCA0149
:103F8000B9010E9479128091A2049091A304029633
:103F90000E94E5122091A6043091A7048D819E8194
:103FA000820F931F9A83898389819A810E94A52118
:103FB00026960FB6F894DEBF0FBECDBFCF91DF912E
:103FC0000895DF93CF9300D000D00F92CDB7DEB726
:103FD0009D838C83EC81FD810580F681E02D8681B7
:103FE00097819B838A838A819B810C960E94E5122C
:103FF0008091AB04882361F58A819B8102960E949F
:10400000E512EA81FB8196898091A904891728F439
:10401000EA81FB8186898093A904EA81FB818689F4
:10402000282F30E0C901880F991F880F991F880F2A
:10403000991F820F931FAC0140555B4F8A819B8172
:104040009C012E5F3F4FCA01B9010E942D120AC088
:104050008A819B819C01245F3F4F8CEF94E0B901E2
:104060000E942D12EA81FB819689E091A204F091D1
:10407000A3048689981718F081E0898301C019820A
:1040800089810F900F900F900F900F90CF91DF913B
:104090000895DF93CF9300D0CDB7DEB79A8389839D
:1040A0008091AE04E981FA8180838091A604909189
:1040B000A704E981FA81928381830F900F90CF91B9
:1040C000DF910895DF93CF9300D000D00F92CDB74A
:1040D000DEB79B838A837D836C830FB6F8940F923F
:1040E000EA81FB8190818091AE04981771F0EA819A
:1040F000FB81218132818091A6049091A7048217CF
:10410000930718F081E089832FC02091A604309195
:10411000A704EA81FB8181819281281B390BEC8104
:10412000FD818081918128173907E0F4EC81FD81C0
:1041300040815181EA81FB81218132818091A604F5
:104140009091A704B901681B790BCB01840F951FCF
:10415000EC81FD81918380838A819B810E9449202B
:10416000198202C081E089830F900FBE89810F9070
:104170000F900F900F900F90CF91DF910895DF93E4
:10418000CF93CDB7DEB781E08093AD04CF91DF91BF
:104190000895DF93CF9300D0CDB7DEB79A8389839C
:1041A0000E946721FDCF0F931F93DF93CF93CDB76D
:1041B000DEB729970FB6F894DEBF0FBECDBF9A8346
:1041C00089837C836B834D833F832E831987088784
:1041D00089819A8149962B813C81B90148E050E060
:1041E0000E940B23E981FA8110A28D81863010F0A4
:1041F00085E08D83E981FA818D81868B89819A8121
:1042000002960E941D1289819A810C960E941D12AD
:10421000E981FA8189819A81918780878D81282F10
:1042200030E086E090E0821B930BE981FA8195876C
:104230008487E981FA8189819A81938B828B29967F
:104240000FB6F894DEBF0FBECDBFCF91DF911F91A7
:104250000F910895DF93CF930F92CDB7DEB71982F8
:1042600013C08981282F30E0C901880F991F880F5A
:10427000991F880F991F820F931F80559B4F0E9493
:10428000F31189818F5F89838981863050F386EEAF
:1042900094E00E94F3118FEE94E00E94F3118CEFF2
:1042A00094E00E94F31185E095E00E94F31186EE00
:1042B00094E09093F9048093F8048FEE94E0909347
:1042C000FB048093FA040F90CF91DF910895DF9360
:1042D000CF9300D00F92CDB7DEB78091A40488238E
:1042E00071F10E94A51D809105051B82882311F4A0
:1042F00081E08B830E94B11D8B81882301F50FB66D
:10430000F8940F92E0910A05F0910B058681978150
:104310009A83898389819A8102960E94E51280910D
:10432000A50481508093A5048091A40481508093BA
:10433000A4040F900FBE89819A810E943E220F90A3
:104340000F900F90CF91DF910895DF93CF9300D01E
:10435000CDB7DEB79A838983E091A204F091A304DC
:1043600089819A81938382832091A6043091A70446
:1043700089819A818217930770F48091FA04909151
:10438000FB042091A2043091A3042E5F3F4FB9019A
:104390000E9479121EC04091F8045091F904809156
:1043A000A2049091A3049C012E5F3F4FCA01B90162
:1043B0000E947912209177003091780089819A814A
:1043C0008217930730F489819A81909378008093C3
:1043D00077000F900F90CF91DF910895DF93CF93E7
:1043E000CDB7DEB728970FB6F894DEBF0FBECDBFAE
:1043F0009C838B837E836D8381E290E00E94871192
:104400009A83898389819A81009769F18D819E8140
:10441000009739F48B819C810E94871198878F8344
:1044200004C08D819E8198878F83E981FA818F8175
:104430009885908F878BE981FA818789908D009785
:1044400039F489819A810E94CD111A8219820BC098
:10445000E981FA818789908D2B813C8165EA70E042
:10446000A9010E94042389819A8128960FB6F894A5
:10447000DEBF0FBECDBFCF91DF910895DF93CF9305
:1044800000D0CDB7DEB79A838983E981FA81878925
:10449000908D0E94CD1189819A810E94CD110F903B
:1044A0000F90CF91DF910895629FD001739FF0012B
:1044B000829FE00DF11D649FE00DF11D929FF00DB4
:1044C000839FF00D749FF00D659FF00D9927729FEB
:1044D000B00DE11DF91F639FB00DE11DF91FBD0176
:1044E000CF0111240895AA1BBB1B51E107C0AA1FCD
:1044F000BB1FA617B70710F0A61BB70B881F991F85
:104500005A95A9F780959095BC01CD010895A1E237
:104510001A2EAA1BBB1BFD010DC0AA1FBB1FEE1F3D
:10452000FF1FA217B307E407F50720F0A21BB30B88
:10453000E40BF50B661F771F881F991F1A9469F704
:1045400060957095809590959B01AC01BD01CF0160
:10455000089597FB092E05260ED057FD04D0D7DF0E
:104560000AD0001C38F450954095309521953F4F66
:104570004F4F5F4F0895F6F7909580957095619530
:104580007F4F8F4F9F4F08952F923F924F925F9290
:104590006F927F928F929F92AF92BF92CF92DF9253
:1045A000EF92FF920F931F93CF93DF93CDB7DEB7B8
:1045B000CA1BDB0B0FB6F894DEBF0FBECDBF09944C
:1045C0002A88398848885F846E847D848C849B84A3
:1045D000AA84B984C884DF80EE80FD800C811B81B1
:1045E000AA81B981CE0FD11D0FB6F894DEBF0FBEE0
:1045F000CDBFED010895FB01DC0102C001900D92D9
:1046000041505040D8F70895DC0101C06D934150EE
:104610005040E0F70895FB01DC014150504048F064
:1046200001900D920020C9F701C01D9241505040E9
:08463000E0F70895F894FFCFB4
:1046380054454D50203D2000430049444C4500005E
:0C46480000000000000000FFFF00010265
:00000001FF
