:100000000C942A000C9447000C9447000C94470071
:100010000C9447000C9447000C940B120C9447006E
:100020000C9447000C943C120C9406130C94D312BD
:100030000C9447000C9447000C9447000C94470024
:100040000C94E5070C9447000C9447000C9447006F
:100050000C94470011241FBECFE5D8E0DEBFCDBF12
:1000600011E0A0E6B0E0EAE8FCE202C005900D92E3
:10007000AC39B107D9F711E0ACE9B1E001C01D928C
:10008000A13BB107E1F70E94BE130C9443160C94F8
:100090000000EF92FF920F931F937B018C0120E0F1
:1000A00030E040E05FE40E94F50388238CF0C80153
:1000B000B70120E030E040E05FE40E94C1010E940F
:1000C00055049B01AC01205030404040504806C0D0
:1000D000C801B7010E9455049B01AC01B901CA01D6
:1000E0001F910F91FF90EF900895A0E0B0E0EBE733
:1000F000F0E00C940C16DC012B01FA019C9192307B
:1001000008F439C1EB018881823008F433C194309E
:1001100069F4843009F02FC111969C91119789815F
:10012000981709F428C1A0E6B0E025C1843009F48D
:1001300021C18230A9F4923009F01DC19A01AD01AC
:1001400088E0EA010990AE01E90109929E0181501F
:10015000C1F7E201898111969C918923818308C1AD
:10016000923009F407C112962D903C901397EB0141
:100170008A819B811496AD90BD90CD90DC901797AD
:10018000EC80FD800E811F819101281B390BB90184
:1001900037FF04C066277727621B730B6032710537
:1001A0000CF061C0121613066CF537014801062EDB
:1001B00004C096948794779467940A94D2F721E0C8
:1001C00030E040E050E004C0220F331F441F551FB1
:1001D0006A95D2F721503040404050402E213F21B7
:1001E00040235123211531054105510521F021E01E
:1001F00030E040E050E079018A01E628F72808293C
:1002000019293CC0232BD1F1260E371E350146019A
:10021000062E04C096948794779467940A94D2F734
:1002200021E030E040E050E004C0220F331F441FC3
:10023000551F6A95D2F721503040404050402A2146
:100240003B214C215D21211531054105510521F04E
:1002500021E030E040E050E059016A01A628B728CB
:10026000C828D9280BC0821593052CF01C01AA249C
:10027000BB24650103C0EE24FF24870111969C91E5
:10028000D20111968C91981709F445C0992339F041
:10029000A80197012A193B094C095D0906C0A6016E
:1002A00095012E193F09400B510B57FD08C01182D3
:1002B0003382228224833583468357831DC081E0A5
:1002C00081833382228288279927DC01821B930B4A
:1002D000A40BB50B84839583A683B7830DC0220F2F
:1002E000331F441F551F24833583468357838281E0
:1002F000938101979383828324813581468157813D
:10030000DA01C9010197A109B1098F5F9F4FAF4F72
:10031000BF4328F30BC0918333822282EA0CFB1C7B
:100320000C1D1D1DE482F5820683178383E0808304
:10033000248135814681578157FF1AC0C901AA27F8
:1003400097FDA095BA2F81709070A070B0705695EF
:10035000479537952795822B932BA42BB52B848318
:100360009583A683B7838281938101969383828349
:10037000DF0101C0D201CD01CDB7DEB7E2E10C94BF
:100380002816A0E2B0E0E7ECF1E00C9418166983BF
:100390007A838B839C832D833E834F835887E9E048
:1003A000EE2EF12CEC0EFD1ECE010196B7010E943F
:1003B00046068E010F5E1F4FCE010596B8010E94C2
:1003C00046068A8991E089278A8BC701B801AE0168
:1003D000475E5F4F0E9475000E947105A096E6E09F
:1003E0000C943416A0E2B0E0E8EFF1E00C9418169B
:1003F00069837A838B839C832D833E834F835887C5
:10040000F9E0EF2EF12CEC0EFD1ECE010196B701A6
:100410000E9446068E010F5E1F4FCE010596B80161
:100420000E944606C701B801AE01475E5F4F0E94B9
:1004300075000E947105A096E6E00C943416A0E2C7
:10044000B0E0E5E2F2E00C940C1669837A838B83CA
:100450009C832D833E834F835887CE010196BE0136
:10046000675F7F4F0E944606CE010596BE016F5E14
:100470007F4F0E9446069985923088F089898230A4
:10048000C8F0943019F4823051F404C0843029F457
:10049000923081F480E690E0C6C0923049F420E0CA
:1004A0009A858A89981321E02A87CE010996BBC0D4
:1004B000823049F420E09A858A89981321E02A8BBA
:1004C000CE014196B0C02D843E844F8458886D88FB
:1004D0007E888F88988CEE24FF248701AA24BB2471
:1004E000650140E050E060E070E0E0E0F0E0C10174
:1004F00081709070892BE9F0E60CF71C081D191D1E
:100500009A01AB012A0D3B1D4C1D5D1D80E090E062
:10051000A0E0B0E0E614F7040805190520F481E036
:1005200090E0A0E0B0E0BA01A901480F591F6A1F8E
:100530007B1FAA0CBB1CCC1CDD1C97FE08C081E0F5
:1005400090E0A0E0B0E0A82AB92ACA2ADB2A3196B6
:10055000E032F10549F0660C771C881C991C569412
:10056000479437942794C3CFFA85EA892B893C892D
:100570008B859C85280F391F2E5F3F4F17C0CA01FE
:1005800081709070892B61F016950795F794E79428
:1005900080E090E0A0E0B0E8E82AF92A0A2B1B2BC3
:1005A00076956795579547952F5F3F4F77FDE7CF36
:1005B0000CC0440F551F661F771F17FD4160EE0CDE
:1005C000FF1C001F111F21503040403090E05907A0
:1005D00090E0690790E4790760F32B8F3C8FDB0193
:1005E000CA018F779070A070B07080349105A1051A
:1005F000B10561F447FD0AC0E114F10401051105DC
:1006000029F0405C5F4F6F4F7F4F40781A8EFE1786
:1006100011F081E08A8F4D8F5E8F6F8F78A383E01A
:10062000898FCE0149960E947105A096E2E10C9453
:100630002816A8E1B0E0EFE1F3E00C94141669830A
:100640007A838B839C832D833E834F835887B9E0C5
:10065000EB2EF12CEC0EFD1ECE010196B7010E948F
:1006600046068E010F5E1F4FCE010596B8010E940F
:1006700046062985223008F47EC03989323010F4CC
:10068000B8017CC08A859A8989278A87243011F02D
:10069000223031F4231709F06EC060E670E06EC0BE
:1006A000343039F41D861E861F86188A1C861B86E8
:1006B00004C0323021F484E08987B7015FC02B8504
:1006C0003C858B899C89281B390B3C872B87ED84C3
:1006D000FE840F851889AD88BE88CF88D88CEA142F
:1006E000FB040C051D0540F4EE0CFF1C001F111F40
:1006F000215030403C872B8720E030E040E050E044
:1007000080E090E0A0E0B0E460E070E0EA14FB0478
:100710000C051D0540F0282B392B4A2B5B2BEA18C2
:10072000FB080C091D09B695A79597958795EE0CC2
:10073000FF1C001F111F6F5F7F4F6F31710531F775
:10074000DA01C9018F779070A070B0708034910584
:10075000A105B10561F427FD0AC0E114F10401050A
:10076000110529F0205C3F4F4F4F5F4F20782D87B8
:100770003E874F87588BBE01675F7F4FCB010E943A
:1007800071056896EAE00C943016A8E1B0E0EBEC55
:10079000F3E00C94181669837A838B839C832D83F2
:1007A0003E834F83588789E0E82EF12CEC0EFD1E26
:1007B000CE010196B7010E9446068E010F5E1F4FC3
:1007C000CE010596B8010E9446068985823040F028
:1007D0008989823028F0C701B8010E94BE0601C095
:1007E0008FEF6896E6E00C943416A8E1B0E0EBEFEA
:1007F000F3E00C94181669837A838B839C832D8392
:100800003E834F83588789E0E82EF12CEC0EFD1EC5
:10081000CE010196B7010E9446068E010F5E1F4F62
:10082000CE010596B8010E9446068985823040F0C7
:100830008989823028F0C701B8010E94BE0601C034
:100840008FEF6896E6E00C943416A8E1B0E0EBE296
:10085000F4E00C94181669837A838B839C832D8330
:100860003E834F83588789E0E82EF12CEC0EFD1E65
:10087000CE010196B7010E9446068E010F5E1F4F02
:10088000CE010596B8010E9446068985823040F067
:100890008989823028F0C701B8010E94BE0601C0D4
:1008A00081E06896E6E00C943416ACE0B0E0EBE54D
:1008B000F4E00C941C1669837A838B839C83CE01AD
:1008C0000196BE016B5F7F4F0E9446068D8182308C
:1008D00061F1823050F1843021F48E81882351F10E
:1008E0002EC02F81388537FD20C06E812F31310514
:1008F0001CF06623F9F023C08EE190E0821B930B7D
:1009000029853A854B855C8504C056954795379572
:1009100027958A95D2F76623B1F05095409530958A
:1009200021953F4F4F4F5F4F0EC020E030E040E039
:1009300050E009C02FEF3FEF4FEF5FE704C020E02A
:1009400030E040E050E8B901CA012C96E2E00C9496
:100950003816A8E0B0E0EFEAF4E00C9414167B013E
:100960008C01611571058105910519F482E0898377
:1009700060C083E089838EE1C82ED12CDC82CB82DB
:10098000ED82FE820F831887C801B7010E942205FD
:10099000FC013197F7FF3BC0222733272E1B3F0B6B
:1009A00057016801022E04C0D694C794B794A79447
:1009B0000A94D2F740E050E060E070E081E090E01F
:1009C000A0E0B0E004C0880F991FAA1FBB1F2A95A2
:1009D000D2F70197A109B1098E219F21A023B1234C
:1009E0000097A105B10521F041E050E060E070E022
:1009F0004A295B296C297D294D835E836F83788723
:100A00008EE190E08E1B9F0B9C838B8312C03097EE
:100A100081F00E2E04C0EE0CFF1C001F111F0A9463
:100A2000D2F7ED82FE820F831887CE1ADF0ADC82AE
:100A3000CB821A82CE0101960E9471052896EAE0C7
:100A40000C943016EF92FF920F931F937B018C0151
:100A500080E0E81680E0F80681E0080780E01807EB
:100A600088F48FEFE816F1040105110531F028F044
:100A700088E090E0A0E0B0E017C080E090E0A0E067
:100A8000B0E012C080E0E81680E0F80680E00807D9
:100A900081E0180728F088E190E0A0E0B0E004C011
:100AA00080E190E0A0E0B0E020E230E040E050E003
:100AB000281B390B4A0B5B0B04C016950795F7945E
:100AC000E7948A95D2F7F701E859FF4F8081281BF8
:100AD000310941095109C9011F910F91FF90EF9010
:100AE0000895DF92EF92FF920F931F93FC01E48031
:100AF000F58006811781D1808081823048F480E0C2
:100B000090E0A0E1B0E0E82AF92A0A2B1B2BA5C04F
:100B1000843009F49FC0823021F4EE24FF24870141
:100B200005C0E114F1040105110519F4E0E0F0E05D
:100B300096C0628173819FEF623879070CF05BC0C9
:100B400022E83FEF261B370B2A3131052CF020E03D
:100B500030E040E050E02AC0B801A701022E04C0F6
:100B600076956795579547950A94D2F781E090E07E
:100B7000A0E0B0E004C0880F991FAA1FBB1F2A95F0
:100B8000D2F70197A109B1098E219F21A023B1239A
:100B90000097A105B10521F081E090E0A0E0B0E070
:100BA0009A01AB01282B392B4A2B5B2BDA01C901A7
:100BB0008F779070A070B07080349105A105B10559
:100BC00039F427FF09C0205C3F4F4F4F5F4F04C0EF
:100BD000215C3F4F4F4F5F4FE0E0F0E02030A0E05E
:100BE0003A07A0E04A07A0E45A0710F0E1E0F0E07D
:100BF00079018A0127C06038710564F5FB01E1586D
:100C0000FF4FD801C7018F779070A070B07080340B
:100C10009105A105B10539F4E7FE0DC080E490E02F
:100C2000A0E0B0E004C08FE390E0A0E0B0E0E80E08
:100C3000F91E0A1F1B1F17FF05C016950795F7948D
:100C4000E794319687E016950795F794E7948A958F
:100C5000D1F705C0EE24FF248701EFEFF0E06E2FFF
:100C6000679566276795902F9F77D794DD24D79453
:100C70008E2F8695492F462B582F5D29B701CA0123
:100C80001F910F91FF90EF90DF900895FC01DB0121
:100C9000408151812281622F6F7770E0221F2227CD
:100CA000221F9381892F880F822B282F30E0991FD4
:100CB0009927991F11969C93119721153105A9F534
:100CC000411551056105710511F482E037C082E8D4
:100CD0009FEF13969C938E9312979A01AB0167E056
:100CE000220F331F441F551F6A95D1F783E08C9361
:100CF0000DC0220F331F441F551F12968D919C91DA
:100D00001397019713969C938E931297203080E04F
:100D1000380780E0480780E4580758F314962D936D
:100D20003D934D935C93179708952F3F310579F4C8
:100D3000411551056105710519F484E08C930895FE
:100D400064FF03C081E08C9312C01C9210C02F5727
:100D5000304013963C932E93129783E08C9387E058
:100D6000440F551F661F771F8A95D1F7706414963C
:100D70004D935D936D937C93179708951F93DC01BA
:100D8000FB019C91923008F447C08081823008F4C6
:100D900043C0943051F411961C91843099F58181AF
:100DA000682F70E0611B71093FC0843021F09230E0
:100DB00031F48230B9F18181882389F12DC01196F7
:100DC0001C9111978230F1F081811817D9F4129695
:100DD0002D913C911397828193818217930794F010
:100DE00028173907BCF014968D919D910D90BC91F8
:100DF000A02D2481358146815781281739074A075C
:100E00005B0718F4112341F00AC082179307A40767
:100E1000B50740F4112319F061E070E005C06FEFF1
:100E20007FEF02C060E070E0CB011F910895DF9377
:100E3000CF9300D0CDB7DEB79A83898389819A8119
:100E4000009731F089819A8190939D0180939C0154
:100E50000F900F90CF91DF910895DF93CF93CDB78F
:100E6000DEB7A7E2B0E0E7E2F0E0808180648C9337
:100E7000A7E2B0E0E7E2F0E080818F778C93A7E211
:100E8000B0E0E7E2F0E080818F7D8C93A6E2B0E0F5
:100E9000E6E2F0E0808180628C93A0E5B0E0E0E5DE
:100EA000F0E080818F7E8C93A0E5B0E0E0E5F0E09B
:100EB00080818F7D8C93A0E5B0E0E0E5F0E080815B
:100EC0008F7B8C93A0E5B0E0E0E5F0E080818F7748
:100ED0008C93A6E2B0E0E6E2F0E080818E7F8C9316
:100EE000A6E2B0E0E6E2F0E0808182608C93A6E2C8
:100EF000B0E0E6E2F0E0808184608C93A6E2B0E0AE
:100F0000E6E2F0E0808180688C93CF91DF910895D4
:100F1000DF93CF930F92CDB7DEB78983A7E2B0E01E
:100F2000E7E2F0E08081807E8C93A7E2B0E0E7E228
:100F3000F0E090818981892B8C93A6E2B0E0E6E213
:100F4000F0E0808180648C93E6E2F0E0808182951D
:100F50008F70882F90E0817090700097A9F3A6E2BF
:100F6000B0E0E6E2F0E0808180618C93E4E2F0E0C2
:100F7000808191810F90CF91DF910895DF93CF937E
:100F80000F92CDB7DEB78983A7E2B0E0E7E2F0E0E9
:100F90008081807E8C93A7E2B0E0E7E2F0E0908170
:100FA0008981892B8C93A6E2B0E0E6E2F0E08081B3
:100FB000877F8C93A6E2B0E0E6E2F0E08081806477
:100FC0008C930F90CF91DF9108951F920F920FB6DF
:100FD0000F9211242F933F934F935F936F937F93BF
:100FE0008F939F93AF93BF93EF93FF93DF93CF9331
:100FF000CDB7DEB780919C0190919D01009749F09B
:10100000E0919C01F0919D01A4E2B0E08D919C9152
:101010000995CF91DF91FF91EF91BF91AF919F9192
:101020008F917F916F915F914F913F912F910F9091
:101030000FBE0F901F901895DF93CF93CDB7DEB7FB
:1010400027970FB6F894DEBF0FBECDBF89836A83A2
:101050004B838B81813009F06FC08981282F30E06C
:101060003F832E838E819F818130910549F12E81AE
:101070003F81223031052CF48E819F81009761F0F1
:10108000D2C02E813F812230310571F18E819F8146
:1010900083309105E9F1C7C0AAE3B0E0EAE3F0E0EC
:1010A0008081482F8A81282F30E081E090E0022E55
:1010B00002C0880F991F0A94E2F7842B8C93B3C067
:1010C000A7E3B0E0E7E3F0E08081482F8A81282F92
:1010D00030E081E090E0022E02C0880F991F0A9450
:1010E000E2F7842B8C939FC0A4E3B0E0E4E3F0E04C
:1010F0008081482F8A81282F30E081E090E0022E05
:1011000002C0880F991F0A94E2F7842B8C938BC03E
:10111000A1E3B0E0E1E3F0E08081482F8A81282F4D
:1011200030E081E090E0022E02C0880F991F0A94FF
:10113000E2F7842B8C9377C08B81882309F073C0EE
:101140008981282F30E03D832C838C819D818130E3
:10115000910559F12C813D81223031052CF48C818F
:101160009D81009769F05FC02C813D81223031055F
:1011700089F18C819D818330910509F440C053C071
:10118000AAE3B0E0EAE3F0E08081482F8A81282FCB
:1011900030E081E090E0022E02C0880F991F0A948F
:1011A000E2F7809584238C933EC0A7E3B0E0E7E3A9
:1011B000F0E08081482F8A81282F30E081E090E0A4
:1011C000022E02C0880F991F0A94E2F780958423AB
:1011D0008C9329C0A4E3B0E0E4E3F0E08081482FE1
:1011E0008A81282F30E081E090E0022E02C0880F33
:1011F000991F0A94E2F7809584238C9314C0A1E38D
:10120000B0E0E1E3F0E08081482F8A81282F30E0D0
:1012100081E090E0022E02C0880F991F0A94E2F745
:10122000809584238C9327960FB6F894DEBF0FBE6B
:10123000CDBFCF91DF910895DF93CF93CDB7DEB7C8
:1012400027970FB6F894DEBF0FBECDBF89836A83A0
:101250004B838B81813009F06FC08981282F30E06A
:101260003F832E838E819F818130910549F12E81AC
:101270003F81223031052CF48E819F81009761F0EF
:10128000D2C02E813F812230310571F18E819F8144
:1012900083309105E9F1C7C0ABE3B0E0EBE3F0E0E8
:1012A0008081482F8A81282F30E081E090E0022E53
:1012B00002C0880F991F0A94E2F7842B8C93B3C065
:1012C000A8E3B0E0E8E3F0E08081482F8A81282F8E
:1012D00030E081E090E0022E02C0880F991F0A944E
:1012E000E2F7842B8C939FC0A5E3B0E0E5E3F0E048
:1012F0008081482F8A81282F30E081E090E0022E03
:1013000002C0880F991F0A94E2F7842B8C938BC03C
:10131000A2E3B0E0E2E3F0E08081482F8A81282F49
:1013200030E081E090E0022E02C0880F991F0A94FD
:10133000E2F7842B8C9377C08B81882309F073C0EC
:101340008981282F30E03D832C838C819D818130E1
:10135000910559F12C813D81223031052CF48C818D
:101360009D81009769F05FC02C813D81223031055D
:1013700089F18C819D818330910509F440C053C06F
:10138000ABE3B0E0EBE3F0E08081482F8A81282FC7
:1013900030E081E090E0022E02C0880F991F0A948D
:1013A000E2F7809584238C933EC0A8E3B0E0E8E3A5
:1013B000F0E08081482F8A81282F30E081E090E0A2
:1013C000022E02C0880F991F0A94E2F780958423A9
:1013D0008C9329C0A5E3B0E0E5E3F0E08081482FDD
:1013E0008A81282F30E081E090E0022E02C0880F31
:1013F000991F0A94E2F7809584238C9314C0A2E38A
:10140000B0E0E2E3F0E08081482F8A81282F30E0CD
:1014100081E090E0022E02C0880F991F0A94E2F743
:10142000809584238C9327960FB6F894DEBF0FBE69
:10143000CDBFCF91DF910895DF93CF9300D000D03F
:10144000CDB7DEB789836A838981282F30E03C835A
:101450002B838B819C8181309105D1F02B813C8144
:10146000223031052CF48B819C81009761F01EC0E5
:101470002B813C812230310581F08B819C8183302E
:10148000910581F013C0EAE3F0E08A8180830EC009
:10149000E7E3F0E08A81808309C0E4E3F0E08A8139
:1014A000808304C0E1E3F0E08A8180830F900F9095
:1014B0000F900F90CF91DF910895DF93CF9300D0DD
:1014C00000D0CDB7DEB789836A838981282F30E0C9
:1014D0003C832B838B819C8181309105D1F02B81C2
:1014E0003C81223031052CF48B819C81009761F086
:1014F0001EC02B813C812230310581F08B819C8183
:101500008330910581F013C0EBE3F0E08A818083A2
:101510000EC0E8E3F0E08A81808309C0E5E3F0E0F3
:101520008A81808304C0E2E3F0E08A8180830F90A7
:101530000F900F900F90CF91DF910895DF93CF938D
:1015400000D000D00F92CDB7DEB78A836B838A813B
:10155000282F30E03D832C834C815D814130510543
:1015600041F18C819D818230910534F42C813D8143
:101570002115310561F052C04C815D814230510529
:1015800051F18C819D8183309105B9F147C0E9E328
:10159000F0E08081282F30E08B81882F90E0A90136
:1015A00002C0559547958A95E2F7CA0181708983F3
:1015B00035C0E6E3F0E08081282F30E08B81882F72
:1015C00090E0A90102C0559547958A95E2F7CA01B6
:1015D0008170898323C0E3E3F0E08081282F30E02D
:1015E0008B81882F90E0A90102C0559547958A9577
:1015F000E2F7CA018170898311C0E0E3F0E08081E5
:10160000282F30E08B81882F90E0A90102C05595EA
:1016100047958A95E2F7CA018170898389810F9085
:101620000F900F900F900F90CF91DF910895DF935F
:10163000CF9300D000D0CDB7DEB789836A8389818C
:10164000282F30E03C832B838B819C818130910556
:1016500049F12B813C81223031052CF48B819C8116
:10166000009761F05AC02B813C812230310571F125
:101670008B819C8183309105E9F14FC0ABE3B0E0F1
:10168000EBE3F0E08081482F8A81282F30E081E071
:1016900090E0022E02C0880F991F0A94E2F7842777
:1016A0008C933BC0A8E3B0E0E8E3F0E08081482FF2
:1016B0008A81282F30E081E090E0022E02C0880F5E
:1016C000991F0A94E2F784278C9327C0A5E3B0E022
:1016D000E5E3F0E08081482F8A81282F30E081E027
:1016E00090E0022E02C0880F991F0A94E2F7842727
:1016F0008C9313C0A2E3B0E0E2E3F0E08081482FD6
:101700008A81282F30E081E090E0022E02C0880F0D
:10171000991F0A94E2F784278C930F900F900F90F3
:101720000F90CF91DF910895DF93CF93CDB7DEB7C0
:10173000AFE5B0E0EFE5F0E0808180688C93CF9179
:10174000DF910895DF93CF93CDB7DEB7AFE5B0E07B
:10175000EFE5F0E080818F778C93CF91DF91089552
:10176000DF93CF93CDB7DEB76C970FB6F894DEBF9B
:101770000FBECDBF83E062E041E00E941C0980E023
:1017800090E0A0E8BFE3898F9A8FAB8FBC8F698D03
:101790007A8D8B8D9C8D20E030E04AEF54E40E94DE
:1017A0001F02DC01CB018D8B9E8BAF8BB88F6D89B7
:1017B0007E898F89988D20E030E040E85FE30E94C9
:1017C000250488232CF481E090E09C8B8B8B3FC018
:1017D0006D897E898F89988D20E03FEF4FE757E430
:1017E0000E94C50318164CF5698D7A8D8B8D9C8DE2
:1017F00020E030E040E251E40E941F02DC01CB0116
:10180000BC01CD010E944900DC01CB019C8B8B8B7C
:101810000FC088EC90E09A8B898B89899A8901970F
:10182000F1F79A8B898B8B899C8901979C8B8B8B89
:101830008B899C89009769F714C06D897E898F898F
:10184000988D0E944900DC01CB019C8B8B8B8B898E
:101850009C89988B8F878F8598890197F1F7988B52
:101860008F8783E062E040E00E941C0980E090E006
:10187000A0E8BFE38B879C87AD87BE876B857C859F
:101880008D859E8520E030E04AEF54E40E941F02DF
:10189000DC01CB018F839887A987BA876F81788510
:1018A00089859A8520E030E040E85FE30E942504C6
:1018B00088232CF481E090E09E838D833FC06F816C
:1018C000788589859A8520E03FEF4FE757E40E94AD
:1018D000C50318164CF56B857C858D859E8520E0AB
:1018E00030E040E251E40E941F02DC01CB01BC0168
:1018F000CD010E944900DC01CB019E838D830FC086
:1019000088EC90E09C838B838B819C810197F1F71D
:101910009C838B838D819E8101979E838D838D8196
:101920009E81009769F714C06F81788589859A85B3
:101930000E944900DC01CB019E838D838D819E81B5
:101940009A83898389819A810197F1F79A838983A0
:101950006C960FB6F894DEBF0FBECDBFCF91DF916E
:101960000895DF93CF93CDB7DEB7C154D0400FB603
:10197000F894DEBF0FBECDBF80E090E0A8E4B2E4F3
:101980008DAB9EABAFABB8AF6DA97EA98FA998AD5B
:1019900020E030E04AEF54E40E941F02DC01CB015A
:1019A00089AB9AABABABBCAB69A97AA98BA99CA953
:1019B00020E030E040E85FE30E94250488232CF417
:1019C00081E090E098AB8FA73FC069A97AA98BA965
:1019D0009CA920E03FEF4FE757E40E94C50318168B
:1019E0004CF56DA97EA98FA998AD20E030E040E2CA
:1019F00051E40E941F02DC01CB01BC01CD010E9419
:101A00004900DC01CB0198AB8FA70FC088EC90E0B8
:101A10009EA78DA78DA59EA50197F1F79EA78DA7DF
:101A20008FA598A9019798AB8FA78FA598A9009724
:101A300069F714C069A97AA98BA99CA90E944900D9
:101A4000DC01CB0198AB8FA78FA598A99CA78BA78A
:101A50008BA59CA50197F1F79CA78BA719AECE018A
:101A6000CA969EAF8DAFE8E6F1E02196FFAFEEAFEC
:101A70002197F3E02296FFAF22972196EEADFFADBE
:101A80002197008021968EAD9FAD219701962196DA
:101A90009FAF8EAF2197EDADFEAD00828DAD9EADB7
:101AA00001969EAF8DAF22969FAD229791502296C0
:101AB0009FAF22972296EFAD2297EE23F1F611C049
:101AC00089AD282F30E0CE01CA96FC01E20FF31F4A
:101AD000908183E0692F41E00E941C0889AD8F5FEF
:101AE00089AF89AD833060F382E06FEF0E941C0AFA
:101AF00088E30E94E10E80E090E0A0E8BFE38FA3BE
:101B000098A7A9A7BAA76FA178A589A59AA520E04B
:101B100030E04AEF54E40E941F02DC01CB018BA3AA
:101B20009CA3ADA3BEA36BA17CA18DA19EA120E02F
:101B300030E040E85FE30E94250488232CF481E034
:101B400090E09AA389A33FC06BA17CA18DA19EA127
:101B500020E03FEF4FE757E40E94C50318164CF50D
:101B60006FA178A589A59AA520E030E040E251E474
:101B70000E941F02DC01CB01BC01CD010E94490083
:101B8000DC01CB019AA389A30FC088EC90E098A355
:101B90008F8F8F8D98A10197F1F798A38F8F89A1CF
:101BA0009AA101979AA389A389A19AA1009769F79D
:101BB00014C06BA17CA18DA19EA10E944900DC01F3
:101BC000CB019AA389A389A19AA19E8F8D8F8D8D18
:101BD0009E8D0197F1F79E8F8D8F8CE00E94E10E14
:101BE00080E090E0A0E8BFE3898F9A8FAB8FBC8F35
:101BF000698D7A8D8B8D9C8D20E030E04AEF54E426
:101C00000E941F02DC01CB018D8B9E8BAF8BB88FA6
:101C10006D897E898F89988D20E030E040E85FE310
:101C20000E94250488232CF481E090E09C8B8B8B10
:101C30003FC06D897E898F89988D20E03FEF4FE707
:101C400057E40E94C50318164CF5698D7A8D8B8D6B
:101C50009C8D20E030E040E251E40E941F02DC0154
:101C6000CB01BC01CD010E944900DC01CB019C8B62
:101C70008B8B0FC088EC90E09A8B898B89899A892D
:101C80000197F1F79A8B898B8B899C8901979C8BA3
:101C90008B8B8B899C89009769F714C06D897E892D
:101CA0008F89988D0E944900DC01CB019C8B8B8B26
:101CB0008B899C89988B8F878F8598890197F1F7FD
:101CC000988B8F8781E00E94E10E80E090E0A0E099
:101CD000B0E48B879C87AD87BE876B857C858D85BF
:101CE0009E8520E030E04AEF54E40E941F02DC01B0
:101CF000CB018F839887A987BA876F81788589857B
:101D00009A8520E030E040E85FE30E9425048823C4
:101D10002CF481E090E09E838D833FC06F817885B5
:101D200089859A8520E03FEF4FE757E40E94C5037D
:101D300018164CF56B857C858D859E8520E030E0FE
:101D400040E251E40E941F02DC01CB01BC01CD0145
:101D50000E944900DC01CB019E838D830FC088EC7B
:101D600090E09C838B838B819C810197F1F79C830E
:101D70008B838D819E8101979E838D838D819E8132
:101D8000009769F714C06F81788589859A850E94CC
:101D90004900DC01CB019E838D838D819E819A83D6
:101DA000898389819A810197F1F79A838983CF5B2F
:101DB000DF4F0FB6F894DEBF0FBECDBFCF91DF91DE
:101DC0000895DF93CF930F92CDB7DEB7898383E079
:101DD00060E040E00E941C0983E061E040E00E9476
:101DE0001C0982E069810E945D0A0E94B00B0F907D
:101DF000CF91DF910895DF93CF930F92CDB7DEB7E8
:101E0000898383E060E041E00E941C0983E061E097
:101E100040E00E941C0982E069810E945D0A0E94E4
:101E2000B00B0F90CF91DF910895DF93CF9300D047
:101E30000F92CDB7DEB79B838A83198219820EC0B9
:101E40008981282F30E08A819B81FC01E20FF31FFA
:101E500080810E94FB0E89818F5F89838981282F71
:101E600030E08A819B81FC01E20FF31F808188238F
:101E700039F70F900F900F90CF91DF910895EF9267
:101E8000FF920F931F93DF93CF93CDB7DEB7619788
:101E90000FB6F894DEBF0FBECDBF6E877F87888BED
:101EA000998B8E859F85A889B9898A879B87AC87FE
:101EB000BD871E821F821886198681E090E0A0E00F
:101EC000B0E08A839B83AC83BD8319828E859F8516
:101ED000A889B989BB2394F48E859F85A889B9897F
:101EE000B095A095909581959F4FAF4FBF4F8A8732
:101EF0009B87AC87BD8781E0898342C08A859B85AB
:101F0000AC85BD850097A105B105D1F580E30E94A0
:101F1000FB0E36C08A819B81AC81BD812AE030E016
:101F200040E050E0BC01CD010E94B0157B018C0166
:101F30008A859B85AC85BD852AE030E040E050E095
:101F4000BC01CD010E94F115DC01CB018E0D9F1D5E
:101F5000A01FB11F8A839B83AC83BD838A859B8529
:101F6000AC85BD852AE030E040E050E0BC01CD0109
:101F70000E94F115DA01C9018A879B87AC87BD876A
:101F80008A859B85AC85BD85181619061A061B0621
:101F90000CF28E859F85A889B989BB2384F48E8530
:101FA0009F85A889B989B095A095909581959F4FF7
:101FB000AF4FBF4F8A879B87AC87BD874AC08E854E
:101FC0009F85A889B9898A879B87AC87BD8741C0CF
:101FD0008A819B81AC81BD812AE030E040E050E005
:101FE000BC01CD010E94F115DC01CB018E839F83E2
:101FF000A887B9878981813021F48DE20E94FB0E88
:1020000019828E81805D0E94FB0E8A819B81AC814A
:10201000BD812AE030E040E050E0BC01CD010E94EB
:10202000F115DA01C9018A839B83AC83BD838A855C
:102030009B85AC85BD852AE030E040E050E0BC01E6
:10204000CD010E94F115DA01C9018A879B87AC870F
:10205000BD878A859B85AC85BD85181619061A062D
:102060001B060CF4B5CF61960FB6F894DEBF0FBE19
:10207000CDBFCF91DF911F910F91FF90EF90089509
:10208000DF93CF9300D0CDB7DEB789836A83898190
:10209000813029F48A8181580E94E10E07C089812C
:1020A000823021F48A8181540E94E10E0F900F90BA
:1020B000CF91DF910895DF93CF93CDB7DEB783E063
:1020C00066E040E00E941C088DE091E10E94E7116B
:1020D0008EE791E10E94F9110E948E11CF91DF915C
:1020E0000895EF92FF920F931F93DF93CF9300D049
:1020F00000D0CDB7DEB79A8389837C836B8310923F
:10210000AA018091AA018330E1F72091A4013091C6
:10211000A5014091A6015091A70180919E01909147
:102120009F01CC01A0E0B0E079018A01E81AF90A28
:102130000A0B1B0BD801C701BC01CD010E94A904E9
:10214000DC01CB01BC01CD012DEB37E346E855E3C3
:102150000E941F02DC01CB019C01AD0160E070E038
:1021600080E893E40E941903DC01CB01BC01CD019E
:102170000E944900DC01CB01E981FA8180839183CF
:10218000A283B3832091A0013091A1014091A201CB
:102190005091A30180919E0190919F01CC01A0E0FC
:1021A000B0E079018A01E81AF90A0A0B1B0BD80181
:1021B000C70124E630E040E050E0BC01CD010E94C0
:1021C000B0157B018C012091A4013091A5014091B3
:1021D000A6015091A70180919E0190919F01CC0191
:1021E000A0E0B0E0281B390B4A0B5B0BC801B7011C
:1021F0000E94CF15DA01C901EB81FC8180839183B4
:10220000A283B3830F900F900F900F90CF91DF9127
:102210001F910F91FF90EF900895DF93CF9300D01F
:10222000CDB7DEB79A8389838091AA01882389F488
:1022300089819A8190939F0180939E0180E00E9402
:10224000CB1181E08093AA011092A9011092A801FC
:1022500050C08091AA01813031F589819A819C0119
:1022600040E050E08091A8019091A901CC01A0E04C
:10227000B0E0DC0199278827820F931FA41FB51FA8
:102280008093A0019093A101A093A201B093A30118
:1022900081E00E94CB1182E08093AA011092A901F3
:1022A0001092A80126C08091AA01823011F589817F
:1022B0009A819C0140E050E08091A8019091A90191
:1022C000CC01A0E0B0E0DC0199278827820F931FA2
:1022D000A41FB51F8093A4019093A501A093A6010C
:1022E000B093A7011092A9011092A80183E08093F6
:1022F000AA010F900F90CF91DF910895DF93CF93B4
:10230000CDB7DEB78091A8019091A9010196909375
:10231000A9018093A801CF91DF910895DF93CF9316
:10232000CDB7DEB7EFE4F0E01082EEE4F0E080E459
:102330008083E9E5F0E084E28083AEE4B0E0EEE49F
:10234000F0E0808182608C93CF91DF910895DF93DC
:10235000CF9300D0CDB7DEB79A838983ECE4F0E069
:1023600089819A81918380830F900F90CF91DF9123
:102370000895DF93CF9300D0CDB7DEB79A838983DA
:10238000EAE4F0E089819A81918380830F900F9035
:10239000CF91DF910895DF93CF930F92CDB7DEB742
:1023A00089838981882341F0AEE4B0E0EEE4F0E077
:1023B000808180648C9307C0AEE4B0E0EEE4F0E08E
:1023C00080818F7B8C930F90CF91DF910895DF9365
:1023D000CF9300D0CDB7DEB79A83898389819A8164
:1023E0009093AC018093AB010F900F90CF91DF9150
:1023F0000895DF93CF9300D0CDB7DEB79A8389835A
:1024000089819A819093AE018093AD010F900F90D6
:10241000CF91DF9108951F920F920FB60F92112462
:102420002F933F934F935F936F937F938F939F93DC
:10243000AF93BF93EF93FF93DF93CF93CDB7DEB707
:10244000E091AB01F091AC01A6E4B0E08D919C91DC
:102450000995CF91DF91FF91EF91BF91AF919F913E
:102460008F917F916F915F914F913F912F910F903D
:102470000FBE0F901F9018951F920F920FB60F92DC
:1024800011242F933F934F935F936F937F938F9379
:102490009F93AF93BF93EF93FF93DF93CF93CDB70A
:1024A000DEB7E091AD01F091AE010995CF91DF91DA
:1024B000FF91EF91BF91AF919F918F917F916F911C
:1024C0005F914F913F912F910F900FBE0F901F90F2
:1024D0001895DF93CF9300D0CDB7DEB79A83898369
:1024E00089819A81009731F089819A819093B00116
:1024F0008093AF010F900F90CF91DF910895DF93FC
:10250000CF93CDB7DEB7A3E5B0E0E3E5F0E080819F
:102510008B7F8C93A3E5B0E0E3E5F0E080818260FF
:102520008C93A3E5B0E0E3E5F0E0808181608C93DB
:10253000A9E5B0E0E9E5F0E080818E7F8C93A9E524
:10254000B0E0E9E5F0E080818D7F8C93A3E5B0E019
:10255000E3E5F0E0808180648C93A3E5B0E0E3E5FF
:10256000F0E0808188608C93A3E5B0E0E3E5F0E0E3
:1025700080818F7E8C93A3E5B0E0E3E5F0E080817D
:1025800080628C93CF91DF910895DF93CF930F9268
:10259000CDB7DEB78983ECE5F0E0898180830F90C9
:1025A000CF91DF9108951F920F920FB60F921124D1
:1025B0002F933F934F935F936F937F938F939F934B
:1025C000AF93BF93EF93FF93DF93CF93CDB7DEB776
:1025D0008091AF019091B001009729F0E091AF0197
:1025E000F091B0010995CF91DF91FF91EF91BF91EB
:1025F000AF919F918F917F916F915F914F913F919B
:102600002F910F900FBE0F901F9018951F920F9251
:102610000FB60F9211242F933F934F935F936F93B5
:102620007F938F939F93AF93BF93EF93FF93DF932A
:10263000CF93CDB7DEB78091AF019091B0010097F5
:1026400029F0E091AF01F091B0010995CF91DF91B0
:10265000FF91EF91BF91AF919F918F917F916F917A
:102660005F914F913F912F910F900FBE0F901F9050
:102670001895DF93CF9300D00F92CDB7DEB7898343
:102680008981282F30E03B832A838A819B81823095
:10269000910569F12A813B812330310534F48A8127
:1026A0009B818130910569F063C02A813B81233091
:1026B000310599F18A819B818430910509F443C0E9
:1026C00057C0A3E5B0E0E3E5F0E080818B7F8C9319
:1026D000A3E5B0E0E3E5F0E0808182608C93A3E5C0
:1026E000B0E0E3E5F0E080818E7F8C9341C0A3E50C
:1026F000B0E0E3E5F0E080818B7F8C93A3E5B0E070
:10270000E3E5F0E0808182608C93A3E5B0E0E3E54F
:10271000F0E0808181608C932BC0A3E5B0E0E3E51D
:10272000F0E0808184608C93A3E5B0E0E3E5F0E025
:1027300080818D7F8C93A3E5B0E0E3E5F0E08081BC
:102740008E7F8C9315C0A3E5B0E0E3E5F0E08081D7
:1027500084608C93A3E5B0E0E3E5F0E080818D7FB9
:102760008C93A3E5B0E0E3E5F0E0808181608C9399
:102770000F900F900F90CF91DF910895DF93CF933B
:10278000CDB7DEB72F970FB6F894DEBF0FBECDBF23
:102790001F860E943F150E94F1148F8781E00E94DE
:1027A000E10E8F850E94471480E090E0AAE7B4E430
:1027B0008B879C87AD87BE876B857C858D859E8545
:1027C00020E030E04AEF54E40E941F02DC01CB011C
:1027D0008F839887A987BA876F81788589859A853D
:1027E00020E030E040E85FE30E94250488232CF4D9
:1027F00081E090E09E838D833FC06F8178858985DD
:102800009A8520E03FEF4FE757E40E94C503181672
:102810004CF56B857C858D859E8520E030E040E21F
:1028200051E40E941F02DC01CB01BC01CD010E94DA
:102830004900DC01CB019E838D830FC088EC90E0C2
:102840009C838B838B819C810197F1F79C838B8385
:102850008D819E8101979E838D838D819E810097BE
:1028600069F799CF6F81788589859A850E9449009B
:10287000DC01CB019E838D838D819E819A83898328
:1028800089819A810197F1F79A83898384CFDF93B5
:10289000CF93CDB7DEB729970FB6F894DEBF0FBE42
:1028A000CDBF89871E8281E08D8389858A3128F496
:1028B00081E0888787E08F8327C089858A3140F04F
:1028C0008985833328F483E0888787E08F831CC061
:1028D0008985833340F089858C3428F485E08887A6
:1028E00087E08F8311C01D8281E08C830AC081E064
:1028F0006C810E94401080E00E94FB0E8C818F5FF3
:102900008C838C81813198F38D81882309F460C098
:102910001B825AC081E08A830DC09A818E81980FF4
:1029200081E0692F0E94401080E00E94FB0E8A81A6
:102930008F5F8A839A818885891778F798858E8139
:10294000890F982F9F5F81E0692F0E94401081E0DE
:102950000E94FB0E98858E81890F982F9F5F82E0E1
:10296000692F0E94401082E00E94FB0E88858E5FD6
:1029700089830DC099818E81980F82E0692F0E9412
:10298000401083E00E94FB0E89818F5F89839981CB
:102990008F81891778F78E81982F985F82E0692F51
:1029A0000E94401084E00E94FB0E8E81982F985F59
:1029B00081E0692F0E94401085E00E94FB0E88E0B4
:1029C0008E838B818F5F8B838B81823008F4A2CFC3
:1029D00029960FB6F894DEBF0FBECDBFCF91DF9121
:1029E0000895DF93CF93CDB7DEB72A970FB6F8944B
:1029F000DEBF0FBECDBF1B821C821D821E821F82C6
:102A0000188619861A861A82198281E00E94E10EC0
:102A100080E00E9488079A83898389819A81CC010A
:102A2000A0E0B0E0BC01CD010E94A904DC01CB0113
:102A3000BC01CD0120E030E040E85EE30E941F02CF
:102A4000DC01CB01BC01CD010E944900DC01CB01BE
:102A50000E94C512CE0103969E01295F3F4FB90126
:102A60000E9471108F819885A985BA852A960FB624
:102A7000F894DEBF0FBECDBFCF91DF910895DF93F5
:102A8000CF93CDB7DEB7E7970FB6F894DEBF0FBE92
:102A9000CDBFCE0103969CAB8BABEBE6F1E0FEAB7A
:102AA000EDABF0E3FFABEDA9FEA900808DA99EA9D7
:102AB00001969EAB8DABEBA9FCA900828BA99CA9CA
:102AC00001969CAB8BAB9FA991509FABEFA9EE23D6
:102AD00051F70E94940B0E947F120E945B1081E0CC
:102AE00063E041E00E941C0880E060E040E00E945A
:102AF0001C080E942D070E94B10C80E40E94E10E88
:102B00001A8222C019821AC08A81282F30E0898156
:102B1000482F50E0220F331F220F331F220F331F85
:102B2000CE010196820F931F840F951FFC013296F0
:102B300080810E94FB0E89818F5F89838981883023
:102B400018F38A818F5F8A838A818630D8F2E7966C
:102B50000FB6F894DEBF0FBECDBFCF91DF910895C1
:102B6000629FD001739FF001829FE00DF11D649F71
:102B7000E00DF11D929FF00D839FF00D749FF00DFD
:102B8000659FF00D9927729FB00DE11DF91F639F9E
:102B9000B00DE11DF91FBD01CF0111240895A1E27F
:102BA0001A2EAA1BBB1BFD010DC0AA1FBB1FEE1FC7
:102BB000FF1FA217B307E407F50720F0A21BB30B12
:102BC000E40BF50B661F771F881F991F1A9469F78E
:102BD00060957095809590959B01AC01BD01CF01EA
:102BE000089597FB092E05260ED057FD04D0D7DF98
:102BF0000AD0001C38F450954095309521953F4FF0
:102C00004F4F5F4F0895F6F79095809570956195B9
:102C10007F4F8F4F9F4F08952F923F924F925F9219
:102C20006F927F928F929F92AF92BF92CF92DF92DC
:102C3000EF92FF920F931F93CF93DF93CDB7DEB741
:102C4000CA1BDB0B0FB6F894DEBF0FBECDBF0994D5
:102C50002A88398848885F846E847D848C849B842C
:102C6000AA84B984C884DF80EE80FD800C811B813A
:102C7000AA81B981CE0FD11D0FB6F894DEBF0FBE69
:0A2C8000CDBFED010895F894FFCFD9
:102C8A000000000000000000000102020303030329
:102C9A0004040404040404040505050505050505E2
:102CAA0005050505050505050606060606060606C2
:102CBA0006060606060606060606060606060606AA
:102CCA000606060606060606070707070707070792
:102CDA00070707070707070707070707070707077A
:102CEA00070707070707070707070707070707076A
:102CFA00070707070707070707070707070707075A
:102D0A000707070707070707080808080808080841
:102D1A000808080808080808080808080808080829
:102D2A000808080808080808080808080808080819
:102D3A000808080808080808080808080808080809
:102D4A0008080808080808080808080808080808F9
:102D5A0008080808080808080808080808080808E9
:102D6A0008080808080808080808080808080808D9
:102D7A0008080808080808080808080808080808C9
:102D8A00080808080808080800010200001F0000D7
:102D9A0000000000001F0101010101010101010100
:102DAA0001000000000000001F00000101010101F4
:0C2DBA001F0000000001010101010100E8
:00000001FF
