:100000000C942A000C9447000C9447000C94470071
:100010000C9447000C9447000C943A140C9447003D
:100020000C9447000C9471140C9447000C944700F6
:100030000C9447000C9454150C94C0150C948A151C
:100040000C9471060C9447000C9447000C944700E4
:100050000C94470011241FBECFE5D8E0DEBFCDBF12
:1000600011E0A0E6B0E0E8EDFDE202C005900D92DF
:10007000AA30B107D9F711E0AAE0B1E001C01D92A2
:10008000A532B107E1F70E9409160C94EA160C9408
:100090000000EF92FF920F931F937B018C0120E0F1
:1000A00030E040E05FE40E94490388238CF0C801FF
:1000B000B70120E030E040E05FE40E94C1010E940F
:1000C000A9039B01AC01205030404040504806C07D
:1000D000C801B7010E94A9039B01AC01B901CA0183
:1000E0001F910F91FF90EF900895A0E0B0E0EBE733
:1000F000F0E00C94B316DC012B01FA019C919230D4
:1001000008F439C1EB018881823008F433C194309E
:1001100069F4843009F02FC111969C91119789815F
:10012000981709F428C1A7EFB0E025C1843009F47D
:1001300021C18230A9F4923009F01DC19A01AD01AC
:1001400088E0EA010990AE01E90109929E0181501F
:10015000C1F7E201898111969C918923818308C1AD
:10016000923009F407C112962D903C901397EB0141
:100170008A819B811496AD90BD90CD90DC901797AD
:10018000EC80FD800E811F819101281B390BB90184
:1001900037FF04C066277727621B730B6032710537
:1001A0000CF061C0121613066CF537014801062EDB
:1001B00004C096948794779467940A94D2F721E0C8
:1001C00030E040E050E004C0220F331F441F551FB1
:1001D0006A95D2F721503040404050402E213F21B7
:1001E00040235123211531054105510521F021E01E
:1001F00030E040E050E079018A01E628F72808293C
:1002000019293CC0232BD1F1260E371E350146019A
:10021000062E04C096948794779467940A94D2F734
:1002200021E030E040E050E004C0220F331F441FC3
:10023000551F6A95D2F721503040404050402A2146
:100240003B214C215D21211531054105510521F04E
:1002500021E030E040E050E059016A01A628B728CB
:10026000C828D9280BC0821593052CF01C01AA249C
:10027000BB24650103C0EE24FF24870111969C91E5
:10028000D20111968C91981709F445C0992339F041
:10029000A80197012A193B094C095D0906C0A6016E
:1002A00095012E193F09400B510B57FD08C01182D3
:1002B0003382228224833583468357831DC081E0A5
:1002C00081833382228288279927DC01821B930B4A
:1002D000A40BB50B84839583A683B7830DC0220F2F
:1002E000331F441F551F24833583468357838281E0
:1002F000938101979383828324813581468157813D
:10030000DA01C9010197A109B1098F5F9F4FAF4F72
:10031000BF4328F30BC0918333822282EA0CFB1C7B
:100320000C1D1D1DE482F5820683178383E0808304
:10033000248135814681578157FF1AC0C901AA27F8
:1003400097FDA095BA2F81709070A070B0705695EF
:10035000479537952795822B932BA42BB52B848318
:100360009583A683B7838281938101969383828349
:10037000DF0101C0D201CD01CDB7DEB7E2E10C94BF
:10038000CF16A0E2B0E0E7ECF1E00C94BF16698371
:100390007A838B839C832D833E834F835887E9E048
:1003A000EE2EF12CEC0EFD1ECE010196B7010E943F
:1003B000D2048E010F5E1F4FCE010596B8010E9438
:1003C000D2048A8991E089278A8BC701B801AE01DE
:1003D000475E5F4F0E9475000E94FD03A096E6E015
:1003E0000C94DB16A0E2B0E0E8EFF1E00C94BF164D
:1003F00069837A838B839C832D833E834F835887C5
:10040000F9E0EF2EF12CEC0EFD1ECE010196B701A6
:100410000E94D2048E010F5E1F4FCE010596B801D7
:100420000E94D204C701B801AE01475E5F4F0E942F
:1004300075000E94FD03A096E6E00C94DB16A0E296
:10044000B0E0E5E2F2E00C94B31669837A838B8323
:100450009C832D833E834F835887CE010196BE0136
:10046000675F7F4F0E94D204CE010596BE016F5E8A
:100470007F4F0E94D2049985923088F0898982301A
:10048000C8F0943019F4823051F404C0843029F457
:10049000923081F487EF90E0C6C0923049F420E0BA
:1004A0009A858A89981321E02A87CE010996BBC0D4
:1004B000823049F420E09A858A89981321E02A8BBA
:1004C000CE014196B0C02D843E844F8458886D88FB
:1004D0007E888F88988CEE24FF248701AA24BB2471
:1004E000650140E050E060E070E0E0E0F0E0C10174
:1004F00081709070892BE9F0E60CF71C081D191D1E
:100500009A01AB012A0D3B1D4C1D5D1D80E090E062
:10051000A0E0B0E0E614F7040805190520F481E036
:1005200090E0A0E0B0E0BA01A901480F591F6A1F8E
:100530007B1FAA0CBB1CCC1CDD1C97FE08C081E0F5
:1005400090E0A0E0B0E0A82AB92ACA2ADB2A3196B6
:10055000E032F10549F0660C771C881C991C569412
:10056000479437942794C3CFFA85EA892B893C892D
:100570008B859C85280F391F2E5F3F4F17C0CA01FE
:1005800081709070892B61F016950795F794E79428
:1005900080E090E0A0E0B0E8E82AF92A0A2B1B2BC3
:1005A00076956795579547952F5F3F4F77FDE7CF36
:1005B0000CC0440F551F661F771F17FD4160EE0CDE
:1005C000FF1C001F111F21503040403090E05907A0
:1005D00090E0690790E4790760F32B8F3C8FDB0193
:1005E000CA018F779070A070B07080349105A1051A
:1005F000B10561F447FD0AC0E114F10401051105DC
:1006000029F0405C5F4F6F4F7F4F40781A8EFE1786
:1006100011F081E08A8F4D8F5E8F6F8F78A383E01A
:10062000898FCE0149960E94FD03A096E2E10C94C9
:10063000CF16A8E1B0E0EFE1F3E00C94BF166983B8
:100640007A838B839C832D833E834F83588789E0F5
:10065000E82EF12CEC0EFD1ECE010196B7010E9492
:10066000D2048E010F5E1F4FCE010596B8010E9485
:10067000D2048985823040F08989823028F0C70110
:10068000B8010E944A0501C08FEF6896E6E00C941D
:10069000DB16A8E1B0E0EFE4F3E00C94BF16698349
:1006A0007A838B839C832D833E834F83588789E095
:1006B000E82EF12CEC0EFD1ECE010196B7010E9432
:1006C000D2048E010F5E1F4FCE010596B8010E9425
:1006D000D2048985823040F08989823028F0C701B0
:1006E000B8010E944A0501C08FEF6896E6E00C94BD
:1006F000DB16A8E1B0E0EFE7F3E00C94BF166983E6
:100700007A838B839C832D833E834F83588789E034
:10071000E82EF12CEC0EFD1ECE010196B7010E94D1
:10072000D2048E010F5E1F4FCE010596B8010E94C4
:10073000D2048985823040F08989823028F0C7014F
:10074000B8010E944A0501C081E06896E6E00C9479
:10075000DB16ACE0B0E0EFEAF3E00C94C31669837B
:100760007A838B839C83CE010196BE016B5F7F4FA2
:100770000E94D2048D81823061F1823050F1843048
:1007800021F48E81882351F12EC02F81388537FDC9
:1007900020C06E812F3131051CF06623F9F023C093
:1007A0008EE190E0821B930B29853A854B855C8511
:1007B00004C056954795379527958A95D2F76623B5
:1007C000B1F050954095309521953F4F4F4F5F4F79
:1007D0000EC020E030E040E050E009C02FEF3FEFD6
:1007E0004FEF5FE704C020E030E040E050E8B9019F
:1007F000CA012C96E2E00C94DF16DF92EF92FF9292
:100800000F931F93FC01E480F58006811781D1804E
:100810008081823048F480E090E0A0E1B0E0E82AF6
:10082000F92A0A2B1B2BA5C0843009F49FC0823003
:1008300021F4EE24FF24870105C0E114F104010531
:10084000110519F4E0E0F0E096C0628173819FEF3A
:10085000623879070CF05BC022E83FEF261B370BAC
:100860002A3131052CF020E030E040E050E02AC091
:10087000B801A701022E04C0769567955795479554
:100880000A94D2F781E090E0A0E0B0E004C0880FC5
:10089000991FAA1FBB1F2A95D2F70197A109B10979
:1008A0008E219F21A023B1230097A105B10521F03E
:1008B00081E090E0A0E0B0E09A01AB01282B392B59
:1008C0004A2B5B2BDA01C9018F779070A070B07052
:1008D00080349105A105B10539F427FF09C0205CDA
:1008E0003F4F4F4F5F4F04C0215C3F4F4F4F5F4F13
:1008F000E0E0F0E02030A0E03A07A0E04A07A0E402
:100900005A0710F0E1E0F0E079018A0127C0603871
:10091000710564F5FB01E158FF4FD801C7018F77DE
:100920009070A070B07080349105A105B10539F4C4
:10093000E7FE0DC080E490E0A0E0B0E004C08FE3EB
:1009400090E0A0E0B0E0E80EF91E0A1F1B1F17FFA1
:1009500005C016950795F794E794319687E01695AC
:100960000795F794E7948A95D1F705C0EE24FF2404
:100970008701EFEFF0E06E2F679566276795902F60
:100980009F77D794DD24D7948E2F8695492F462BB9
:10099000582F5D29B701CA011F910F91FF90EF9069
:1009A000DF900895FC01DB01408151812281622F9B
:1009B0006F7770E0221F2227221F9381892F880FD3
:1009C000822B282F30E0991F9927991F11969C930D
:1009D000119721153105A9F54115510561057105DD
:1009E00011F482E037C082E89FEF13969C938E93B8
:1009F00012979A01AB0167E0220F331F441F551F66
:100A00006A95D1F783E08C930DC0220F331F441FEA
:100A1000551F12968D919C911397019713969C9355
:100A20008E931297203080E0380780E0480780E4FA
:100A3000580758F314962D933D934D935C93179755
:100A400008952F3F310579F4411551056105710570
:100A500019F484E08C93089564FF03C081E08C93C3
:100A600012C01C9210C02F57304013963C932E9307
:100A7000129783E08C9387E0440F551F661F771F02
:100A80008A95D1F7706414964D935D936D937C9322
:100A9000179708951F93DC01FB019C91923008F495
:100AA00047C08081823008F443C0943051F41196DD
:100AB0001C91843099F58181682F70E0611B710968
:100AC0003FC0843021F0923031F48230B9F181811D
:100AD000882389F12DC011961C9111978230F1F075
:100AE00081811817D9F412962D913C911397828128
:100AF00093818217930794F028173907BCF0149656
:100B00008D919D910D90BC91A02D248135814681C0
:100B10005781281739074A075B0718F4112341F05A
:100B20000AC082179307A407B50740F4112319F0F0
:100B300061E070E005C06FEF7FEF02C060E070E041
:100B4000CB011F910895DF93CF9300D0CDB7DEB7CF
:100B50009A83898389819A81009731F089819A816A
:100B600090930B0180930A010F900F90CF91DF912A
:100B70000895DF93CF93CDB7DEB7A7E2B0E0E7E209
:100B8000F0E0808180648C93A7E2B0E0E7E2F0E0DF
:100B900080818F778C93A7E2B0E0E7E2F0E080817C
:100BA0008F7D8C93A6E2B0E0E6E2F0E08081806287
:100BB0008C93A0E5B0E0E0E5F0E080818F7E8C933F
:100BC000A0E5B0E0E0E5F0E080818F7D8C93A0E5CA
:100BD000B0E0E0E5F0E080818F7B8C93A0E5B0E0B1
:100BE000E0E5F0E080818F778C93A6E2B0E0E6E26A
:100BF000F0E080818E7F8C93A6E2B0E0E6E2F0E048
:100C0000808182608C93A6E2B0E0E6E2F0E0808131
:100C100084608C93A6E2B0E0E6E2F0E08081806838
:100C20008C93CF91DF910895DF93CF930F92CDB73F
:100C3000DEB78983A7E2B0E0E7E2F0E08081807E62
:100C40008C93A7E2B0E0E7E2F0E090818981892B04
:100C50008C93A6E2B0E0E6E2F0E0808180648C93C1
:100C6000E6E2F0E0808182958F70882F90E08170BD
:100C700090700097A9F3A6E2B0E0E6E2F0E0808190
:100C800080618C93E4E2F0E0808191810F90CF91BC
:100C9000DF910895DF93CF930F92CDB7DEB78983AD
:100CA000A7E2B0E0E7E2F0E08081807E8C93A7E2EB
:100CB000B0E0E7E2F0E090818981892B8C93A6E295
:100CC000B0E0E6E2F0E0808188608C93A6E2B0E0DC
:100CD000E6E2F0E0808180648C930F90CF91DF9109
:100CE00008951F920F920FB60F9211242F933F93E6
:100CF0004F935F936F937F938F939F93AF93BF9324
:100D0000EF93FF93DF93CF93CDB7DEB780910A01C6
:100D100090910B01009749F0E0910A01F0910B01CD
:100D2000A4E2B0E08D919C910995CF91DF91FF9164
:100D3000EF91BF91AF919F918F917F916F915F9153
:100D40004F913F912F910F900FBE0F901F901895CC
:100D5000DF93CF93CDB7DEB727970FB6F894DEBFFA
:100D60000FBECDBF89836A834B838B81813009F0AD
:100D70006FC08981282F30E03F832E838E819F8131
:100D80008130910549F12E813F81223031052CF4CB
:100D90008E819F81009761F0D2C02E813F812230E9
:100DA000310571F18E819F8183309105E9F1C7C0D2
:100DB000AAE3B0E0EAE3F0E08081482F8A81282F9F
:100DC00030E081E090E0022E02C0880F991F0A9463
:100DD000E2F7842B8C93B3C0A7E3B0E0E7E3F0E045
:100DE0008081482F8A81282F30E081E090E0022E18
:100DF00002C0880F991F0A94E2F7842B8C939FC03E
:100E0000A4E3B0E0E4E3F0E08081482F8A81282F5A
:100E100030E081E090E0022E02C0880F991F0A9412
:100E2000E2F7842B8C938BC0A1E3B0E0E1E3F0E028
:100E30008081482F8A81282F30E081E090E0022EC7
:100E400002C0880F991F0A94E2F7842B8C9377C015
:100E50008B81882309F073C08981282F30E03D837E
:100E60002C838C819D818130910559F12C813D81AC
:100E7000223031052CF48C819D81009769F05FC090
:100E80002C813D812230310589F18C819D81833017
:100E9000910509F440C053C0AAE3B0E0EAE3F0E0F2
:100EA0008081482F8A81282F30E081E090E0022E57
:100EB00002C0880F991F0A94E2F7809584238C93CF
:100EC0003EC0A7E3B0E0E7E3F0E08081482F8A81ED
:100ED000282F30E081E090E0022E02C0880F991F99
:100EE0000A94E2F7809584238C9329C0A4E3B0E0B0
:100EF000E4E3F0E08081482F8A81282F30E081E010
:100F000090E0022E02C0880F991F0A94E2F78095A4
:100F100084238C9314C0A1E3B0E0E1E3F0E080818E
:100F2000482F8A81282F30E081E090E0022E02C015
:100F3000880F991F0A94E2F7809584238C93279653
:100F40000FB6F894DEBF0FBECDBFCF91DF910895ED
:100F5000DF93CF93CDB7DEB727970FB6F894DEBFF8
:100F60000FBECDBF89836A834B838B81813009F0AB
:100F70006FC08981282F30E03F832E838E819F812F
:100F80008130910549F12E813F81223031052CF4C9
:100F90008E819F81009761F0D2C02E813F812230E7
:100FA000310571F18E819F8183309105E9F1C7C0D0
:100FB000ABE3B0E0EBE3F0E08081482F8A81282F9B
:100FC00030E081E090E0022E02C0880F991F0A9461
:100FD000E2F7842B8C93B3C0A8E3B0E0E8E3F0E041
:100FE0008081482F8A81282F30E081E090E0022E16
:100FF00002C0880F991F0A94E2F7842B8C939FC03C
:10100000A5E3B0E0E5E3F0E08081482F8A81282F56
:1010100030E081E090E0022E02C0880F991F0A9410
:10102000E2F7842B8C938BC0A2E3B0E0E2E3F0E024
:101030008081482F8A81282F30E081E090E0022EC5
:1010400002C0880F991F0A94E2F7842B8C9377C013
:101050008B81882309F073C08981282F30E03D837C
:101060002C838C819D818130910559F12C813D81AA
:10107000223031052CF48C819D81009769F05FC08E
:101080002C813D812230310589F18C819D81833015
:10109000910509F440C053C0ABE3B0E0EBE3F0E0EE
:1010A0008081482F8A81282F30E081E090E0022E55
:1010B00002C0880F991F0A94E2F7809584238C93CD
:1010C0003EC0A8E3B0E0E8E3F0E08081482F8A81E9
:1010D000282F30E081E090E0022E02C0880F991F97
:1010E0000A94E2F7809584238C9329C0A5E3B0E0AD
:1010F000E5E3F0E08081482F8A81282F30E081E00D
:1011000090E0022E02C0880F991F0A94E2F78095A2
:1011100084238C9314C0A2E3B0E0E2E3F0E080818A
:10112000482F8A81282F30E081E090E0022E02C013
:10113000880F991F0A94E2F7809584238C93279651
:101140000FB6F894DEBF0FBECDBFCF91DF910895EB
:10115000DF93CF9300D000D0CDB7DEB789836A8309
:101160008981282F30E03C832B838B819C818130C7
:101170009105D1F02B813C81223031052CF48B81FB
:101180009C81009761F01EC02B813C81223031058B
:1011900081F08B819C818330910581F013C0EAE35B
:1011A000F0E08A8180830EC0E7E3F0E08A818083EB
:1011B00009C0E4E3F0E08A81808304C0E1E3F0E069
:1011C0008A8180830F900F900F900F90CF91DF91C5
:1011D0000895DF93CF9300D000D0CDB7DEB78983D9
:1011E0006A838981282F30E03C832B838B819C810B
:1011F00081309105D1F02B813C81223031052CF4D6
:101200008B819C81009761F01EC02B813C81223034
:10121000310581F08B819C818330910581F013C071
:10122000EBE3F0E08A8180830EC0E8E3F0E08A819E
:10123000808309C0E5E3F0E08A81808304C0E2E3B3
:10124000F0E08A8180830F900F900F900F90CF91E4
:10125000DF910895DF93CF9300D000D00F92CDB7E8
:10126000DEB78A836B838A81282F30E03D832C830D
:101270004C815D814130510541F18C819D818230ED
:10128000910534F42C813D812115310561F052C066
:101290004C815D814230510551F18C819D818330BB
:1012A0009105B9F147C0E9E3F0E08081282F30E0F3
:1012B0008B81882F90E0A90102C0559547958A95AA
:1012C000E2F7CA018170898335C0E6E3F0E08081EE
:1012D000282F30E08B81882F90E0A90102C055951E
:1012E00047958A95E2F7CA018170898323C0E3E3B9
:1012F000F0E08081282F30E08B81882F90E0A901D9
:1013000002C0559547958A95E2F7CA018170898395
:1013100011C0E0E3F0E08081282F30E08B81882F3E
:1013200090E0A90102C0559547958A95E2F7CA0158
:101330008170898389810F900F900F900F900F908B
:10134000CF91DF910895DF93CF9300D000D0CDB738
:10135000DEB789836A838981282F30E03C832B8321
:101360008B819C818130910549F12B813C81223018
:1013700031052CF48B819C81009761F05AC02B8140
:101380003C812230310571F18B819C818330910544
:10139000E9F14FC0ABE3B0E0EBE3F0E08081482F30
:1013A0008A81282F30E081E090E0022E02C0880F71
:1013B000991F0A94E2F784278C933BC0A8E3B0E01E
:1013C000E8E3F0E08081482F8A81282F30E081E037
:1013D00090E0022E02C0880F991F0A94E2F784273A
:1013E0008C9327C0A5E3B0E0E5E3F0E08081482FCF
:1013F0008A81282F30E081E090E0022E02C0880F21
:10140000991F0A94E2F784278C9313C0A2E3B0E0FB
:10141000E2E3F0E08081482F8A81282F30E081E0EC
:1014200090E0022E02C0880F991F0A94E2F78427E9
:101430008C930F900F900F900F90CF91DF910895A4
:10144000DF93CF93CDB7DEB7AFE5B0E0EFE5F0E0E7
:10145000808180688C93CF91DF910895DF93CF9343
:10146000CDB7DEB7AFE5B0E0EFE5F0E080818F7794
:101470008C93CF91DF910895DF93CF930F92CDB7E7
:10148000DEB7198280910E01882321F510920C019C
:101490001CC080910C01882F90E0FC01E55EFE4F9E
:1014A000208180910C01882F90E0FC01E150FF4FDA
:1014B0008081281741F481E0898380910C018F5F3E
:1014C00080930C0102C019822CC080910C018530E0
:1014D00000F327C080910E01813019F510920C01A4
:1014E0001CC080910C01882F90E0FC01E05EFE4F53
:1014F000208180910C01882F90E0FC01EC5FFE4F71
:101500008081281741F481E0898380910C018F5FED
:1015100080930C0102C0198204C080910C018330B9
:1015200000F389810F90CF91DF910895DF93CF93DE
:10153000CDB7DEB72F970FB6F894DEBF0FBECDBF85
:101540001F860E943C0A8F878F85882F90E081300C
:10155000910579F481E00E940B1280E690E00E94F0
:101560003F1282E061E00E946A1381E080930E01E5
:101570007BC081E00E940B1280E790E00E943F1246
:1015800080E090E0AAE7B4E48B879C87AD87BE87B4
:101590006B857C858D859E8520E030E04AEF54E4A4
:1015A0000E941F02DC01CB018F839887A987BA872D
:1015B0006F81788589859A8520E030E040E85FE397
:1015C0000E94790388232CF481E090E09E838D8330
:1015D0003FC06F81788589859A8520E03FEF4FE78E
:1015E00057E40E94190318164CF56B857C858D8590
:1015F0009E8520E030E040E251E40E941F02DC01C1
:10160000CB01BC01CD010E944900DC01CB019E83CE
:101610008D830FC088EC90E09C838B838B819C81B1
:101620000197F1F79C838B838D819E8101979E8327
:101630008D838D819E81009769F714C06F817885B5
:1016400089859A850E944900DC01CB019E838D83A8
:101650008D819E819A83898389819A810197F1F78F
:101660009A8389830E9412162F960FB6F894DEBFD4
:101670000FBECDBFCF91DF910895DF93CF93CDB74C
:10168000DEB76D970FB6F894DEBF0FBECDBF809169
:101690000D018F5F80930D011D8E0E943C0A8D8F7E
:1016A0008D8D882F90E08130910541F40E94700C5F
:1016B00082E080930E0110920D0109C180910D010D
:1016C000833008F47EC081E00E940B1281E890E034
:1016D0000E943F1210920D0180E090E0AAE7B4E46E
:1016E000898F9A8FAB8FBC8F698D7A8D8B8D9C8DF6
:1016F00020E030E04AEF54E40E941F02DC01CB01FD
:101700008D8B9E8BAF8BB88F6D897E898F89988DDD
:1017100020E030E040E85FE30E94790388232CF466
:1017200081E090E09C8B8B8B3FC06D897E898F8997
:10173000988D20E03FEF4FE757E40E9419031816F9
:101740004CF5698D7A8D8B8D9C8D20E030E040E2E8
:1017500051E40E941F02DC01CB01BC01CD010E94BB
:101760004900DC01CB019C8B8B8B0FC088EC90E097
:101770009A8B898B89899A890197F1F79A8B898B42
:101780008B899C8901979C8B8B8B8B899C8900977B
:1017900069F714C06D897E898F89988D0E944900F0
:1017A000DC01CB019C8B8B8B8B899C89988B8F87E1
:1017B0008F8598890197F1F7988B8F870E94121671
:1017C00086C081E00E940B128FE890E00E943F12D9
:1017D00080E090E0AAE7B4E48B879C87AD87BE8762
:1017E0006B857C858D859E8520E030E04AEF54E452
:1017F0000E941F02DC01CB018F839887A987BA87DB
:101800006F81788589859A8520E030E040E85FE344
:101810000E94790388232CF481E090E09E838D83DD
:101820003FC06F81788589859A8520E03FEF4FE73B
:1018300057E40E94190318164CF56B857C858D853D
:101840009E8520E030E040E251E40E941F02DC016E
:10185000CB01BC01CD010E944900DC01CB019E837C
:101860008D830FC088EC90E09C838B838B819C815F
:101870000197F1F79C838B838D819E8101979E83D5
:101880008D838D819E81009769F714C06F81788563
:1018900089859A850E944900DC01CB019E838D8356
:1018A0008D819E819A83898389819A810197F1F73D
:1018B0009A83898381E00E940B1280E690E00E9467
:1018C0003F1282E061E00E946A13109210016D964F
:1018D0000FB6F894DEBF0FBECDBFCF91DF91089554
:1018E000DF93CF93CDB7DEB781E00E940B1289E979
:1018F00090E00E943F1281E06BE00E946A1380EA50
:1019000090E00E943F1282E061E00E946A1387EA41
:1019100090E00E943F1282E06AE00E946A138DEA22
:1019200090E00E943F12CF91DF910895DF93CF9313
:101930000F92CDB7DEB7898381E00E940B1282E05F
:101940006AE00E946A1384EB90E00E943F1281E0FB
:1019500061E00E946A1389EB90E00E943F12898146
:10196000833449F481EC90E00E943F1288E290E0D9
:101970000E94281410C089818F3449F488EC90E0CB
:101980000E943F128BE490E00E94281404C00E9441
:10199000700C109211010F90CF91DF910895DF9399
:1019A000CF9300D0CDB7DEB79A83898382E06AE017
:1019B0000E946A1384EB90E00E943F1281E061E094
:1019C0000E946A138DEC90E00E943F1281E069E072
:1019D0000E946A1389819A81CC01A0E0B0E0BC0129
:1019E000CD010E94691283E40E94251289819A81A7
:1019F0008234910589F4A6E2B0E0E6E2F0E080816D
:101A00008F778C931092110180E067E040E00E9494
:101A1000A8070E94700C10C089819A8187329105B5
:101A200030F080E067E041E00E94A80705C080E058
:101A300067E040E00E94A8070F900F90CF91DF91E0
:101A40000895DF93CF9300D0CDB7DEB79A83898313
:101A500082E06AE00E946A1384EB90E00E943F12E9
:101A600081E061E00E946A1385ED90E00E943F12E0
:101A700089819A818234910589F4A6E2B0E0E6E298
:101A8000F0E080818F778C931092110180E066E006
:101A900040E00E94A8070E94700C21C089819A81B1
:101AA00027E0813D920770F080E066E040E00E9410
:101AB000A80781E067E00E946A138CED90E00E9425
:101AC0003F120DC080E066E041E00E94A80781E07F
:101AD00067E00E946A1380EE90E00E943F120F9030
:101AE0000F90CF91DF910895DF93CF93CDB7DEB7FD
:101AF00027970FB6F894DEBF0FBECDBF89838981CB
:101B00008037B1F480910E01282F30E03F832E837F
:101B10008E819F81009731F02E813F8121303105E8
:101B200021F0D7C00E94960AD4C00E943D0BD1C0BC
:101B300080910E018823A9F48981803791F08981F1
:101B40000E94251280910F01882F90E0FC01E55E34
:101B5000FE4F8981808380910F018F5F80930F01F9
:101B6000B8C080910E018130A9F48981803791F04D
:101B700089810E94251280911001882F90E0FC013C
:101B8000E05EFE4F89818083809110018F5F80939A
:101B900010019FC080910E01823009F09AC08981A6
:101BA000803709F496C080911101882309F06DC037
:101BB0008981813351F08981823339F0898183337E
:101BC00021F08981843309F060C08981282F30E0B9
:101BD0003D832C838C819D818233910501F12C8181
:101BE0003D812333310534F48C819D81813391050E
:101BF00061F048C02C813D812333310541F18C8156
:101C00009D8184339105D9F13DC081E0809311011C
:101C100081E08093120183E40E94960C5AC0A6E2F0
:101C2000B0E0E6E2F0E0808180688C9380E00E9482
:101C30004A0681E00E940B1281E08093110182E04C
:101C4000809312018FE090E00E94CF0C42C0A6E288
:101C5000B0E0E6E2F0E0808180688C9381E00E9451
:101C60004A0681E00E940B1281E08093110183E01B
:101C70008093120181E090E00E94210D2AC00E9411
:101C8000091627C00E94700C24C080911201282FD1
:101C900030E03B832A838A819B818230910571F0F9
:101CA0002A813B812330310579F08A819B81813003
:101CB000910579F489810E94960C0BC08981882F47
:101CC00090E00E94CF0C05C08981882F90E00E948F
:101CD000210D27960FB6F894DEBF0FBECDBFCF9172
:101CE000DF910895EF92FF920F931F93DF93CF93AD
:101CF00000D000D0CDB7DEB79C838B831A821982C7
:101D000080911201823049F58B819C81CC01A0E049
:101D1000B0E028E833E140E050E0BC01CD010E9492
:101D20004316DC01CB01072E7AE0B695A79597956F
:101D300087957A95D1F7702D9A83898389819A81C5
:101D40002AE030E0B9010E946216CB019A838983B0
:101D500089819A810E94CF0C22C08B819C81CC0109
:101D6000A0E0B0E028E833E140E050E0BC01CD0164
:101D70000E9443167B018C018B819C8188519C4F72
:101D80009C0140E050E0C801B7010E947616DA01DC
:101D9000C9019A83898389819A810E94210D0F90BC
:101DA0000F900F900F90CF91DF911F910F91FF90A7
:101DB000EF900895DF93CF93CDB7DEB76C970FB652
:101DC000F894DEBF0FBECDBF83E067E041E00E9424
:101DD000A80780E090E0A0E8BFE3898F9A8FAB8FDF
:101DE000BC8F698D7A8D8B8D9C8D20E030E04AEF21
:101DF00054E40E941F02DC01CB018D8B9E8BAF8BC4
:101E0000B88F6D897E898F89988D20E030E040E819
:101E10005FE30E94790388232CF481E090E09C8B9F
:101E20008B8B3FC06D897E898F89988D20E03FEF35
:101E30004FE757E40E94190318164CF5698D7A8D07
:101E40008B8D9C8D20E030E040E251E40E941F0227
:101E5000DC01CB01BC01CD010E944900DC01CB01BA
:101E60009C8B8B8B0FC088EC90E09A8B898B898937
:101E70009A890197F1F79A8B898B8B899C890197B5
:101E80009C8B8B8B8B899C89009769F714C06D891B
:101E90007E898F89988D0E944900DC01CB019C8B43
:101EA0008B8B8B899C89988B8F878F8598890197DD
:101EB000F1F7988B8F8783E067E040E00E94A807E6
:101EC00080E090E0A0E8BFE38B879C87AD87BE876A
:101ED0006B857C858D859E8520E030E04AEF54E45B
:101EE0000E941F02DC01CB018F839887A987BA87E4
:101EF0006F81788589859A8520E030E040E85FE34E
:101F00000E94790388232CF481E090E09E838D83E6
:101F10003FC06F81788589859A8520E03FEF4FE744
:101F200057E40E94190318164CF56B857C858D8546
:101F30009E8520E030E040E251E40E941F02DC0177
:101F4000CB01BC01CD010E944900DC01CB019E8385
:101F50008D830FC088EC90E09C838B838B819C8168
:101F60000197F1F79C838B838D819E8101979E83DE
:101F70008D838D819E81009769F714C06F8178856C
:101F800089859A850E944900DC01CB019E838D835F
:101F90008D819E819A83898389819A810197F1F746
:101FA0009A8389836C960FB6F894DEBF0FBECDBFBF
:101FB000CF91DF910895DF93CF93CDB7DEB7C154B2
:101FC000D0400FB6F894DEBF0FBECDBF80E090E0EA
:101FD000A8E4B2E48DAB9EABAFABB8AF6DA97EA960
:101FE0008FA998AD20E030E04AEF54E40E941F0230
:101FF000DC01CB0189AB9AABABABBCAB69A97AA9CD
:102000008BA99CA920E030E040E85FE30E947903BF
:1020100088232CF481E090E098AB8FA73FC069A99A
:102020007AA98BA99CA920E03FEF4FE757E40E94D3
:10203000190318164CF56DA97EA98FA998AD20E05B
:1020400030E040E251E40E941F02DC01CB01BC0100
:10205000CD010E944900DC01CB0198AB8FA70FC0D6
:1020600088EC90E09EA78DA78DA59EA50197F1F71E
:102070009EA78DA78FA598A9019798AB8FA78FA52D
:1020800098A9009769F714C069A97AA98BA99CA996
:102090000E944900DC01CB0198AB8FA78FA598A9BE
:1020A0009CA78BA78BA59CA50197F1F79CA78BA755
:1020B00019AECE01CA969EAF8DAFE7E0F1E0219652
:1020C000FFAFEEAF2197F3E02296FFAF2297219664
:1020D000EEADFFAD2197008021968EAD9FAD21978B
:1020E000019621969FAF8EAF2197EDADFEAD008298
:1020F0008DAD9EAD01969EAF8DAF22969FAD22977E
:10210000915022969FAF22972296EFAD2297EE2311
:10211000F1F611C089AD282F30E0CE01CA96FC013E
:10212000E20FF31F908183E0692F41E00E94A8062F
:1021300089AD8F5F89AF89AD833060F382E06FEF47
:102140000E94A80888E30E940B1280E090E0A0E8BB
:10215000BFE38FA398A7A9A7BAA76FA178A589A560
:102160009AA520E030E04AEF54E40E941F02DC010F
:10217000CB018BA39CA3ADA3BEA36BA17CA18DA11E
:102180009EA120E030E040E85FE30E9479038823CD
:102190002CF481E090E09AA389A33FC06BA17CA1BD
:1021A0008DA19EA120E03FEF4FE757E40E94190365
:1021B00018164CF56FA178A589A59AA520E030E006
:1021C00040E251E40E941F02DC01CB01BC01CD01C1
:1021D0000E944900DC01CB019AA389A30FC088ECBF
:1021E00090E098A38F8F8F8D98A10197F1F798A316
:1021F0008F8F89A19AA101979AA389A389A19AA1F6
:10220000009769F714C06BA17CA18DA19EA10E94CB
:102210004900DC01CB019AA389A389A19AA19E8FD1
:102220008D8F8D8D9E8D0197F1F79E8F8D8F8CE018
:102230000E940B1280E090E0A0E8BFE3898F9A8FA4
:10224000AB8FBC8F698D7A8D8B8D9C8D20E030E0BB
:102250004AEF54E40E941F02DC01CB018D8B9E8B60
:10226000AF8BB88F6D897E898F89988D20E030E0A3
:1022700040E85FE30E94790388232CF481E090E03A
:102280009C8B8B8B3FC06D897E898F89988D20E0D8
:102290003FEF4FE757E40E94190318164CF5698D7C
:1022A0007A8D8B8D9C8D20E030E040E251E40E94DD
:1022B0001F02DC01CB01BC01CD010E944900DC0101
:1022C000CB019C8B8B8B0FC088EC90E09A8B898B19
:1022D00089899A890197F1F79A8B898B8B899C89D7
:1022E00001979C8B8B8B8B899C89009769F714C015
:1022F0006D897E898F89988D0E944900DC01CB0110
:102300009C8B8B8B8B899C89988B8F878F859889E9
:102310000197F1F7988B8F8781E00E940B1280E084
:1023200090E0A0E0B0E48B879C87AD87BE876B858B
:102330007C858D859E8520E030E04AEF54E40E9444
:102340001F02DC01CB018F839887A987BA876F8131
:10235000788589859A8520E030E040E85FE30E9437
:10236000790388232CF481E090E09E838D833FC025
:102370006F81788589859A8520E03FEF4FE757E4A4
:102380000E94190318164CF56B857C858D859E85FA
:1023900020E030E040E251E40E941F02DC01CB016A
:1023A000BC01CD010E944900DC01CB019E838D83DD
:1023B0000FC088EC90E09C838B838B819C8101977C
:1023C000F1F79C838B838D819E8101979E838D8302
:1023D0008D819E81009769F714C06F81788589850A
:1023E0009A850E944900DC01CB019E838D838D81FB
:1023F0009E819A83898389819A810197F1F79A83D3
:102400008983CF5BDF4F0FB6F894DEBF0FBECDBF21
:10241000CF91DF910895DF93CF930F92CDB7DEB7C1
:10242000898383E065E040E00E94A80783E066E0DE
:1024300040E00E94A80782E069810E94E9080E94AA
:10244000DA0E0F90CF91DF910895DF93CF930F9223
:10245000CDB7DEB7898383E065E041E00E94A8073D
:1024600083E066E040E00E94A80782E069810E9464
:10247000E9080E94DA0E0F90CF91DF910895DF9363
:10248000CF9300D00F92CDB7DEB79B838A8319829A
:1024900019820EC08981282F30E08A819B81FC013E
:1024A000E20FF31F80810E94251289818F5F89834B
:1024B0008981282F30E08A819B81FC01E20FF31F84
:1024C0008081882339F70F900F900F90CF91DF9183
:1024D0000895EF92FF920F931F93DF93CF93CDB7A1
:1024E000DEB761970FB6F894DEBF0FBECDBF6E8723
:1024F0007F87888B998B8E859F85A889B9898A87E4
:102500009B87AC87BD871E821F821886198681E053
:1025100090E0A0E0B0E08A839B83AC83BD83198206
:102520008E859F85A889B989BB2394F48E859F8564
:10253000A889B989B095A095909581959F4FAF4F87
:10254000BF4F8A879B87AC87BD8781E0898342C064
:102550008A859B85AC85BD850097A105B105D1F520
:1025600080E30E94251236C08A819B81AC81BD81A7
:102570002AE030E040E050E0BC01CD010E9443166B
:102580007B018C018A859B85AC85BD852AE030E086
:1025900040E050E0BC01CD010E949816DC01CB0167
:1025A0008E0D9F1DA01FB11F8A839B83AC83BD83AB
:1025B0008A859B85AC85BD852AE030E040E050E00F
:1025C000BC01CD010E949816DA01C9018A879B8758
:1025D000AC87BD878A859B85AC85BD851816190695
:1025E0001A061B060CF28E859F85A889B989BB2324
:1025F00084F48E859F85A889B989B095A09590951A
:1026000081959F4FAF4FBF4F8A879B87AC87BD8710
:102610004AC08E859F85A889B9898A879B87AC87A0
:10262000BD8741C08A819B81AC81BD812AE030E0B9
:1026300040E050E0BC01CD010E949816DC01CB01C6
:102640008E839F83A887B9878981813021F48DE2A9
:102650000E94251219828E81805D0E9425128A8136
:102660009B81AC81BD812AE030E040E050E0BC01BC
:10267000CD010E949816DA01C9018A839B83AC833D
:10268000BD838A859B85AC85BD852AE030E040E02E
:1026900050E0BC01CD010E949816DA01C9018A8779
:1026A0009B87AC87BD878A859B85AC85BD851816C1
:1026B00019061A061B060CF4B5CF61960FB6F894EE
:1026C000DEBF0FBECDBFCF91DF911F910F91FF9065
:1026D000EF900895DF93CF9300D0CDB7DEB7898315
:1026E0006A838981813029F48A8181580E940B1282
:1026F00007C08981823021F48A8181540E940B12A3
:102700000F900F90CF91DF910895DF93CF9300D07A
:10271000CDB7DEB79A83898389819A81009731F09A
:1027200089819A8190931401809313010F900F90E7
:10273000CF91DF910895DF93CF9300D0CDB7DEB76F
:102740009A83898389819A81009731F089819A815E
:1027500090931601809315010F900F90CF91DF9108
:102760000895DF93CF93CDB7DEB7AEE4B0E0EEE4EB
:10277000F0E080818E7F8C93AEE4B0E0EEE4F0E098
:1027800080818D7F8C93AEE4B0E0EEE4F0E0808158
:1027900084608C93AFE4B0E0EFE4F0E0808182608D
:1027A0008C93AFE4B0E0EFE4F0E080818E7F8C9317
:1027B000AEE4B0E0EEE4F0E0808188608C93AEE4BB
:1027C000B0E0EEE4F0E0808180618C93E6E4F0E03C
:1027D00081E792E091838083AFE4B0E0EFE4F0E042
:1027E000808180628C93AFE4B0E0EFE4F0E0808120
:1027F0008F7E8C93CF91DF910895DF93CF9300D09C
:102800000F92CDB7DEB789838981282F30E03B83D3
:102810002A838A819B81009731F02A813B81213074
:10282000310549F00FC0AEE4B0E0EEE4F0E08081A5
:102830008F7B8C9307C0AEE4B0E0EEE4F0E08081E3
:1028400080648C930F900F900F90CF91DF9108953B
:10285000DF93CF9300D0CDB7DEB79A838983E8E4C6
:10286000F0E089819A81918380830F900F90CF91BE
:10287000DF9108951F920F920FB60F9211242F939C
:102880003F934F935F936F937F938F939F93AF93F8
:10289000BF93EF93FF93DF93CF93CDB7DEB78091D4
:1028A000130190911401009749F0E0911301F09108
:1028B0001401A6E4B0E08D919C910995CF91DF9130
:1028C000FF91EF91BF91AF919F918F917F916F9108
:1028D0005F914F913F912F910F900FBE0F901F90DE
:1028E00018951F920F920FB60F9211242F933F93BA
:1028F0004F935F936F937F938F939F93AF93BF9308
:10290000EF93FF93DF93CF93CDB7DEB7809115019F
:1029100090911601009729F0E0911501F0911601B0
:102920000995CF91DF91FF91EF91BF91AF919F9169
:102930008F917F916F915F914F913F912F910F9068
:102940000FBE0F901F901895DF93CF9300D0CDB797
:10295000DEB79A83898389819A81009731F08981D2
:102960009A8190931801809317010F900F90CF9147
:10297000DF910895DF93CF9300D0CDB7DEB79A8370
:10298000898389819A81009731F089819A81909316
:102990001A01809319010F900F90CF91DF91089544
:1029A000DF93CF930F92CDB7DEB71982E9E2F0E063
:1029B00083E38083E0E4F0E0108289818260898390
:1029C000898184608983898180688983E0E4F0E07B
:1029D00089818083AAE2B0E0EAE2F0E08081886049
:1029E0008C93AAE2B0E0EAE2F0E0808180618C930F
:1029F000AAE2B0E0EAE2F0E0808180648C93AAE28F
:102A0000B0E0EAE2F0E0808180688C930F90CF9193
:102A1000DF910895DF93CF9300D00F92CDB7DEB74B
:102A20009B838A83198219821BC0EBE2F0E08081CC
:102A3000829586958770882F90E0817090700097BE
:102A4000A1F3ACE2B0E08981282F30E08A819B813C
:102A5000FC01E20FF31F80818C9389818F5F898352
:102A60008981282F30E08A819B81FC01E20FF31FCE
:102A700080818823D1F60F900F900F90CF91DF9136
:102A80000895DF93CF930F92CDB7DEB7EBE2F0E07E
:102A900080818823DCF7ECE2F0E080818983898102
:102AA0000F90CF91DF9108951F920F920FB60F9262
:102AB00011242F933F934F935F936F937F938F9343
:102AC0009F93AF93BF93EF93FF93DF93CF93CDB7D4
:102AD000DEB78091170190911801009741F0E091C5
:102AE0001701F0911801ACE2B0E08C910995CF91FB
:102AF000DF91FF91EF91BF91AF919F918F917F9166
:102B00006F915F914F913F912F910F900FBE0F905A
:102B10001F9018951F920F920FB60F9211242F93AA
:102B20003F934F935F936F937F938F939F93AF9355
:102B3000BF93EF93FF93DF93CF93CDB7DEB7809131
:102B4000190190911A01009741F0E0911901F0915B
:102B50001A01ACE2B0E08C910995CF91DF91FF9121
:102B6000EF91BF91AF919F918F917F916F915F9105
:102B70004F913F912F910F900FBE0F901F9018957E
:102B80001F920F920FB60F921124DF93CF93CDB700
:102B9000DEB7CF91DF910F900FBE0F901F90189569
:102BA000DF93CF93CDB7DEB783E060E040E00E94D3
:102BB000A80683E061E041E00E94A80683E064E0AB
:102BC00041E00E94A80680E067E041E00E94A8067C
:102BD00080E066E041E00E94A8060E94DB0F0E94B0
:102BE000200A84E79DE00E94A41482E79EE00E94F0
:102BF000A3050E94D0140E94B1130E94B905A6E259
:102C0000B0E0E6E2F0E080818F778C93CF91DF91A6
:102C10000895DF93CF93CDB7DEB70E94D0150E9401
:102C20001216FFCFDF93CF930F92CDB7DEB7198285
:102C300081E00E940B1284EE90E00E943F1282E03D
:102C400061E00E946A131092100110920F0110921D
:102C50000E01198211C08981882F90E0FC01E55E88
:102C6000FE4F10828981882F90E0FC01E05EFE4FCC
:102C7000108289818F5F89838981863060F30F900C
:102C8000CF91DF910895629FD001739FF001829FE1
:102C9000E00DF11D649FE00DF11D929FF00D839FEB
:102CA000F00D749FF00D659FF00D9927729FB00D88
:102CB000E11DF91F639FB00DE11DF91FBD01CF019B
:102CC00011240895AA1BBB1B51E107C0AA1FBB1FFB
:102CD000A617B70710F0A61BB70B881F991F5A95A8
:102CE000A9F780959095BC01CD010895A1E21A2E17
:102CF000AA1BBB1BFD010DC0AA1FBB1FEE1FFF1FA0
:102D0000A217B307E407F50720F0A21BB30BE40BEF
:102D1000F50B661F771F881F991F1A9469F7609536
:102D20007095809590959B01AC01BD01CF010895F0
:102D300097FB092E05260ED057FD04D0D7DF0AD009
:102D4000001C38F450954095309521953F4F4F4FDA
:102D50005F4F0895F6F790958095709561957F4F38
:102D60008F4F9F4F08952F923F924F925F926F9295
:102D70007F928F929F92AF92BF92CF92DF92EF920B
:102D8000FF920F931F93CF93DF93CDB7DEB7CA1B8C
:102D9000DB0B0FB6F894DEBF0FBECDBF09942A88B7
:102DA000398848885F846E847D848C849B84AA845F
:102DB000B984C884DF80EE80FD800C811B81AA81EC
:102DC000B981CE0FD11D0FB6F894DEBF0FBECDBFB7
:082DD000ED010895F894FFCF16
:102DD800454E5445522050415353574F52443A00A0
:102DE80057524F4E472055534552204E414D45208E
:102DF800004E4F204D4F52452054524945530054E0
:102E0800525920416761696E00312D444F4F52007D
:102E1800322D54454D5000332D4C445200342D4230
:102E280041434B004241434B00444F4F52203A200C
:102E380000434C4F534544004F50454E0054454DB8
:102E480050203A20004C4452203A20004F46460079
:102E5800204F4E00454E5445522055534552204E62
:102E6800414D45203A2000000000000000000041CC
:0A2E7800484D45443132330506078A
:00000001FF
